{
	"project-32/contracts/contract.sol": {
		"PeerToPeerTutoring": {
			"abi": [
				{
					"inputs": [
						{
							"internalType": "address",
							"name": "tokenAddress",
							"type": "address"
						}
					],
					"stateMutability": "nonpayable",
					"type": "constructor"
				},
				{
					"anonymous": false,
					"inputs": [
						{
							"indexed": true,
							"internalType": "address",
							"name": "tutor",
							"type": "address"
						},
						{
							"indexed": false,
							"internalType": "string",
							"name": "topic",
							"type": "string"
						},
						{
							"indexed": false,
							"internalType": "uint256",
							"name": "tokensRequired",
							"type": "uint256"
						}
					],
					"name": "TutoringOffered",
					"type": "event"
				},
				{
					"anonymous": false,
					"inputs": [
						{
							"indexed": true,
							"internalType": "address",
							"name": "student",
							"type": "address"
						},
						{
							"indexed": true,
							"internalType": "address",
							"name": "tutor",
							"type": "address"
						},
						{
							"indexed": false,
							"internalType": "string",
							"name": "topic",
							"type": "string"
						},
						{
							"indexed": false,
							"internalType": "uint256",
							"name": "tokensPaid",
							"type": "uint256"
						}
					],
					"name": "TutoringSessionBooked",
					"type": "event"
				},
				{
					"inputs": [
						{
							"internalType": "address",
							"name": "tutor",
							"type": "address"
						}
					],
					"name": "bookTutoringSession",
					"outputs": [],
					"stateMutability": "nonpayable",
					"type": "function"
				},
				{
					"inputs": [
						{
							"internalType": "string",
							"name": "topic",
							"type": "string"
						},
						{
							"internalType": "uint256",
							"name": "tokensRequired",
							"type": "uint256"
						}
					],
					"name": "offerTutoring",
					"outputs": [],
					"stateMutability": "nonpayable",
					"type": "function"
				},
				{
					"inputs": [],
					"name": "token",
					"outputs": [
						{
							"internalType": "contract IToken",
							"name": "",
							"type": "address"
						}
					],
					"stateMutability": "view",
					"type": "function"
				},
				{
					"inputs": [
						{
							"internalType": "address",
							"name": "",
							"type": "address"
						}
					],
					"name": "tutoringOffers",
					"outputs": [
						{
							"internalType": "address",
							"name": "tutor",
							"type": "address"
						},
						{
							"internalType": "string",
							"name": "topic",
							"type": "string"
						},
						{
							"internalType": "uint256",
							"name": "tokensRequired",
							"type": "uint256"
						},
						{
							"internalType": "bool",
							"name": "isAvailable",
							"type": "bool"
						}
					],
					"stateMutability": "view",
					"type": "function"
				}
			],
			"devdoc": {
				"kind": "dev",
				"methods": {},
				"version": 1
			},
			"evm": {
				"assembly": "    /* \"project-32/contracts/contract.sol\":336:2786  contract PeerToPeerTutoring {... */\n  mstore(0x40, 0x80)\n    /* \"project-32/contracts/contract.sol\":1218:1297  constructor(address tokenAddress) {... */\n  callvalue\n  dup1\n  iszero\n  tag_1\n  jumpi\n  0x00\n  dup1\n  revert\ntag_1:\n  pop\n  mload(0x40)\n  sub(codesize, bytecodeSize)\n  dup1\n  bytecodeSize\n  dup4\n  codecopy\n  dup2\n  dup2\n  add\n  0x40\n  mstore\n  dup2\n  add\n  swap1\n  tag_2\n  swap2\n  swap1\n  tag_3\n  jump\t// in\ntag_2:\n    /* \"project-32/contracts/contract.sol\":1277:1289  tokenAddress */\n  dup1\n    /* \"project-32/contracts/contract.sol\":1262:1267  token */\n  0x00\n  dup1\n    /* \"project-32/contracts/contract.sol\":1262:1290  token = IToken(tokenAddress) */\n  0x0100\n  exp\n  dup2\n  sload\n  dup2\n  0xffffffffffffffffffffffffffffffffffffffff\n  mul\n  not\n  and\n  swap1\n  dup4\n  0xffffffffffffffffffffffffffffffffffffffff\n  and\n  mul\n  or\n  swap1\n  sstore\n  pop\n    /* \"project-32/contracts/contract.sol\":1218:1297  constructor(address tokenAddress) {... */\n  pop\n    /* \"project-32/contracts/contract.sol\":336:2786  contract PeerToPeerTutoring {... */\n  jump(tag_6)\n    /* \"#utility.yul\":88:205   */\ntag_8:\n    /* \"#utility.yul\":197:198   */\n  0x00\n    /* \"#utility.yul\":194:195   */\n  dup1\n    /* \"#utility.yul\":187:199   */\n  revert\n    /* \"#utility.yul\":334:460   */\ntag_10:\n    /* \"#utility.yul\":371:378   */\n  0x00\n    /* \"#utility.yul\":411:453   */\n  0xffffffffffffffffffffffffffffffffffffffff\n    /* \"#utility.yul\":404:409   */\n  dup3\n    /* \"#utility.yul\":400:454   */\n  and\n    /* \"#utility.yul\":389:454   */\n  swap1\n  pop\n    /* \"#utility.yul\":334:460   */\n  swap2\n  swap1\n  pop\n  jump\t// out\n    /* \"#utility.yul\":466:562   */\ntag_11:\n    /* \"#utility.yul\":503:510   */\n  0x00\n    /* \"#utility.yul\":532:556   */\n  tag_20\n    /* \"#utility.yul\":550:555   */\n  dup3\n    /* \"#utility.yul\":532:556   */\n  tag_10\n  jump\t// in\ntag_20:\n    /* \"#utility.yul\":521:556   */\n  swap1\n  pop\n    /* \"#utility.yul\":466:562   */\n  swap2\n  swap1\n  pop\n  jump\t// out\n    /* \"#utility.yul\":568:690   */\ntag_12:\n    /* \"#utility.yul\":641:665   */\n  tag_22\n    /* \"#utility.yul\":659:664   */\n  dup2\n    /* \"#utility.yul\":641:665   */\n  tag_11\n  jump\t// in\ntag_22:\n    /* \"#utility.yul\":634:639   */\n  dup2\n    /* \"#utility.yul\":631:666   */\n  eq\n    /* \"#utility.yul\":621:684   */\n  tag_23\n  jumpi\n    /* \"#utility.yul\":680:681   */\n  0x00\n    /* \"#utility.yul\":677:678   */\n  dup1\n    /* \"#utility.yul\":670:682   */\n  revert\n    /* \"#utility.yul\":621:684   */\ntag_23:\n    /* \"#utility.yul\":568:690   */\n  pop\n  jump\t// out\n    /* \"#utility.yul\":696:839   */\ntag_13:\n    /* \"#utility.yul\":753:758   */\n  0x00\n    /* \"#utility.yul\":784:790   */\n  dup2\n    /* \"#utility.yul\":778:791   */\n  mload\n    /* \"#utility.yul\":769:791   */\n  swap1\n  pop\n    /* \"#utility.yul\":800:833   */\n  tag_25\n    /* \"#utility.yul\":827:832   */\n  dup2\n    /* \"#utility.yul\":800:833   */\n  tag_12\n  jump\t// in\ntag_25:\n    /* \"#utility.yul\":696:839   */\n  swap3\n  swap2\n  pop\n  pop\n  jump\t// out\n    /* \"#utility.yul\":845:1196   */\ntag_3:\n    /* \"#utility.yul\":915:921   */\n  0x00\n    /* \"#utility.yul\":964:966   */\n  0x20\n    /* \"#utility.yul\":952:961   */\n  dup3\n    /* \"#utility.yul\":943:950   */\n  dup5\n    /* \"#utility.yul\":939:962   */\n  sub\n    /* \"#utility.yul\":935:967   */\n  slt\n    /* \"#utility.yul\":932:1051   */\n  iszero\n  tag_27\n  jumpi\n    /* \"#utility.yul\":970:1049   */\n  tag_28\n  tag_8\n  jump\t// in\ntag_28:\n    /* \"#utility.yul\":932:1051   */\ntag_27:\n    /* \"#utility.yul\":1090:1091   */\n  0x00\n    /* \"#utility.yul\":1115:1179   */\n  tag_29\n    /* \"#utility.yul\":1171:1178   */\n  dup5\n    /* \"#utility.yul\":1162:1168   */\n  dup3\n    /* \"#utility.yul\":1151:1160   */\n  dup6\n    /* \"#utility.yul\":1147:1169   */\n  add\n    /* \"#utility.yul\":1115:1179   */\n  tag_13\n  jump\t// in\ntag_29:\n    /* \"#utility.yul\":1105:1179   */\n  swap2\n  pop\n    /* \"#utility.yul\":1061:1189   */\n  pop\n    /* \"#utility.yul\":845:1196   */\n  swap3\n  swap2\n  pop\n  pop\n  jump\t// out\n    /* \"project-32/contracts/contract.sol\":336:2786  contract PeerToPeerTutoring {... */\ntag_6:\n  dataSize(sub_0)\n  dup1\n  dataOffset(sub_0)\n  0x00\n  codecopy\n  0x00\n  return\nstop\n\nsub_0: assembly {\n        /* \"project-32/contracts/contract.sol\":336:2786  contract PeerToPeerTutoring {... */\n      mstore(0x40, 0x80)\n      callvalue\n      dup1\n      iszero\n      tag_1\n      jumpi\n      0x00\n      dup1\n      revert\n    tag_1:\n      pop\n      jumpi(tag_2, lt(calldatasize, 0x04))\n      shr(0xe0, calldataload(0x00))\n      dup1\n      0x04bf5782\n      eq\n      tag_3\n      jumpi\n      dup1\n      0x612c1c45\n      eq\n      tag_4\n      jumpi\n      dup1\n      0x6bb62bff\n      eq\n      tag_5\n      jumpi\n      dup1\n      0xfc0c546a\n      eq\n      tag_6\n      jumpi\n    tag_2:\n      0x00\n      dup1\n      revert\n        /* \"project-32/contracts/contract.sol\":1904:2784  function bookTutoringSession(address tutor) external {... */\n    tag_3:\n      tag_7\n      0x04\n      dup1\n      calldatasize\n      sub\n      dup2\n      add\n      swap1\n      tag_8\n      swap2\n      swap1\n      tag_9\n      jump\t// in\n    tag_8:\n      tag_10\n      jump\t// in\n    tag_7:\n      stop\n        /* \"project-32/contracts/contract.sol\":811:866  mapping(address => TutoringOffer) public tutoringOffers */\n    tag_4:\n      tag_11\n      0x04\n      dup1\n      calldatasize\n      sub\n      dup2\n      add\n      swap1\n      tag_12\n      swap2\n      swap1\n      tag_9\n      jump\t// in\n    tag_12:\n      tag_13\n      jump\t// in\n    tag_11:\n      mload(0x40)\n      tag_14\n      swap5\n      swap4\n      swap3\n      swap2\n      swap1\n      tag_15\n      jump\t// in\n    tag_14:\n      mload(0x40)\n      dup1\n      swap2\n      sub\n      swap1\n      return\n        /* \"project-32/contracts/contract.sol\":1346:1855  function offerTutoring(string calldata topic, uint256 tokensRequired) external {... */\n    tag_5:\n      tag_16\n      0x04\n      dup1\n      calldatasize\n      sub\n      dup2\n      add\n      swap1\n      tag_17\n      swap2\n      swap1\n      tag_18\n      jump\t// in\n    tag_17:\n      tag_19\n      jump\t// in\n    tag_16:\n      stop\n        /* \"project-32/contracts/contract.sol\":410:429  IToken public token */\n    tag_6:\n      tag_20\n      tag_21\n      jump\t// in\n    tag_20:\n      mload(0x40)\n      tag_22\n      swap2\n      swap1\n      tag_23\n      jump\t// in\n    tag_22:\n      mload(0x40)\n      dup1\n      swap2\n      sub\n      swap1\n      return\n        /* \"project-32/contracts/contract.sol\":1904:2784  function bookTutoringSession(address tutor) external {... */\n    tag_10:\n        /* \"project-32/contracts/contract.sol\":1967:1994  TutoringOffer storage offer */\n      0x00\n        /* \"project-32/contracts/contract.sol\":1997:2011  tutoringOffers */\n      0x01\n        /* \"project-32/contracts/contract.sol\":1997:2018  tutoringOffers[tutor] */\n      0x00\n        /* \"project-32/contracts/contract.sol\":2012:2017  tutor */\n      dup4\n        /* \"project-32/contracts/contract.sol\":1997:2018  tutoringOffers[tutor] */\n      0xffffffffffffffffffffffffffffffffffffffff\n      and\n      0xffffffffffffffffffffffffffffffffffffffff\n      and\n      dup2\n      mstore\n      0x20\n      add\n      swap1\n      dup2\n      mstore\n      0x20\n      add\n      0x00\n      keccak256\n        /* \"project-32/contracts/contract.sol\":1967:2018  TutoringOffer storage offer = tutoringOffers[tutor] */\n      swap1\n      pop\n        /* \"project-32/contracts/contract.sol\":2036:2041  offer */\n      dup1\n        /* \"project-32/contracts/contract.sol\":2036:2053  offer.isAvailable */\n      0x03\n      add\n      0x00\n      swap1\n      sload\n      swap1\n      0x0100\n      exp\n      swap1\n      div\n      0xff\n      and\n        /* \"project-32/contracts/contract.sol\":2028:2091  require(offer.isAvailable, \"This tutor is no longer available\") */\n      tag_25\n      jumpi\n      mload(0x40)\n      0x08c379a000000000000000000000000000000000000000000000000000000000\n      dup2\n      mstore\n      0x04\n      add\n      tag_26\n      swap1\n      tag_27\n      jump\t// in\n    tag_26:\n      mload(0x40)\n      dup1\n      swap2\n      sub\n      swap1\n      revert\n    tag_25:\n        /* \"project-32/contracts/contract.sol\":2132:2133  0 */\n      0x00\n        /* \"project-32/contracts/contract.sol\":2109:2114  offer */\n      dup2\n        /* \"project-32/contracts/contract.sol\":2109:2129  offer.tokensRequired */\n      0x02\n      add\n      sload\n        /* \"project-32/contracts/contract.sol\":2109:2133  offer.tokensRequired > 0 */\n      gt\n        /* \"project-32/contracts/contract.sol\":2101:2180  require(offer.tokensRequired > 0, \"This tutor has not set a valid token price\") */\n      tag_28\n      jumpi\n      mload(0x40)\n      0x08c379a000000000000000000000000000000000000000000000000000000000\n      dup2\n      mstore\n      0x04\n      add\n      tag_29\n      swap1\n      tag_30\n      jump\t// in\n    tag_29:\n      mload(0x40)\n      dup1\n      swap2\n      sub\n      swap1\n      revert\n    tag_28:\n        /* \"project-32/contracts/contract.sol\":2248:2270  uint256 studentBalance */\n      0x00\n        /* \"project-32/contracts/contract.sol\":2273:2278  token */\n      dup1\n      0x00\n      swap1\n      sload\n      swap1\n      0x0100\n      exp\n      swap1\n      div\n      0xffffffffffffffffffffffffffffffffffffffff\n      and\n        /* \"project-32/contracts/contract.sol\":2273:2288  token.balanceOf */\n      0xffffffffffffffffffffffffffffffffffffffff\n      and\n      0x70a08231\n        /* \"project-32/contracts/contract.sol\":2289:2299  msg.sender */\n      caller\n        /* \"project-32/contracts/contract.sol\":2273:2300  token.balanceOf(msg.sender) */\n      mload(0x40)\n      dup3\n      0xffffffff\n      and\n      0xe0\n      shl\n      dup2\n      mstore\n      0x04\n      add\n      tag_31\n      swap2\n      swap1\n      tag_32\n      jump\t// in\n    tag_31:\n      0x20\n      mload(0x40)\n      dup1\n      dup4\n      sub\n      dup2\n      dup7\n      gas\n      staticcall\n      iszero\n      dup1\n      iszero\n      tag_34\n      jumpi\n      returndatasize\n      0x00\n      dup1\n      returndatacopy\n      revert(0x00, returndatasize)\n    tag_34:\n      pop\n      pop\n      pop\n      pop\n      mload(0x40)\n      returndatasize\n      not(0x1f)\n      0x1f\n      dup3\n      add\n      and\n      dup3\n      add\n      dup1\n      0x40\n      mstore\n      pop\n      dup2\n      add\n      swap1\n      tag_35\n      swap2\n      swap1\n      tag_36\n      jump\t// in\n    tag_35:\n        /* \"project-32/contracts/contract.sol\":2248:2300  uint256 studentBalance = token.balanceOf(msg.sender) */\n      swap1\n      pop\n        /* \"project-32/contracts/contract.sol\":2336:2341  offer */\n      dup2\n        /* \"project-32/contracts/contract.sol\":2336:2356  offer.tokensRequired */\n      0x02\n      add\n      sload\n        /* \"project-32/contracts/contract.sol\":2318:2332  studentBalance */\n      dup2\n        /* \"project-32/contracts/contract.sol\":2318:2356  studentBalance >= offer.tokensRequired */\n      lt\n      iszero\n        /* \"project-32/contracts/contract.sol\":2310:2405  require(studentBalance >= offer.tokensRequired, \"Insufficient tokens to book tutoring session\") */\n      tag_37\n      jumpi\n      mload(0x40)\n      0x08c379a000000000000000000000000000000000000000000000000000000000\n      dup2\n      mstore\n      0x04\n      add\n      tag_38\n      swap1\n      tag_39\n      jump\t// in\n    tag_38:\n      mload(0x40)\n      dup1\n      swap2\n      sub\n      swap1\n      revert\n    tag_37:\n        /* \"project-32/contracts/contract.sol\":2456:2461  token */\n      0x00\n      dup1\n      sload\n      swap1\n      0x0100\n      exp\n      swap1\n      div\n      0xffffffffffffffffffffffffffffffffffffffff\n      and\n        /* \"project-32/contracts/contract.sol\":2456:2474  token.transferFrom */\n      0xffffffffffffffffffffffffffffffffffffffff\n      and\n      0x23b872dd\n        /* \"project-32/contracts/contract.sol\":2475:2485  msg.sender */\n      caller\n        /* \"project-32/contracts/contract.sol\":2487:2492  tutor */\n      dup6\n        /* \"project-32/contracts/contract.sol\":2494:2499  offer */\n      dup6\n        /* \"project-32/contracts/contract.sol\":2494:2514  offer.tokensRequired */\n      0x02\n      add\n      sload\n        /* \"project-32/contracts/contract.sol\":2456:2515  token.transferFrom(msg.sender, tutor, offer.tokensRequired) */\n      mload(0x40)\n      dup5\n      0xffffffff\n      and\n      0xe0\n      shl\n      dup2\n      mstore\n      0x04\n      add\n      tag_40\n      swap4\n      swap3\n      swap2\n      swap1\n      tag_41\n      jump\t// in\n    tag_40:\n      0x20\n      mload(0x40)\n      dup1\n      dup4\n      sub\n      dup2\n      0x00\n      dup8\n      gas\n      call\n      iszero\n      dup1\n      iszero\n      tag_43\n      jumpi\n      returndatasize\n      0x00\n      dup1\n      returndatacopy\n      revert(0x00, returndatasize)\n    tag_43:\n      pop\n      pop\n      pop\n      pop\n      mload(0x40)\n      returndatasize\n      not(0x1f)\n      0x1f\n      dup3\n      add\n      and\n      dup3\n      add\n      dup1\n      0x40\n      mstore\n      pop\n      dup2\n      add\n      swap1\n      tag_44\n      swap2\n      swap1\n      tag_45\n      jump\t// in\n    tag_44:\n      pop\n        /* \"project-32/contracts/contract.sol\":2633:2638  false */\n      0x00\n        /* \"project-32/contracts/contract.sol\":2613:2618  offer */\n      dup3\n        /* \"project-32/contracts/contract.sol\":2613:2630  offer.isAvailable */\n      0x03\n      add\n      0x00\n        /* \"project-32/contracts/contract.sol\":2613:2638  offer.isAvailable = false */\n      0x0100\n      exp\n      dup2\n      sload\n      dup2\n      0xff\n      mul\n      not\n      and\n      swap1\n      dup4\n      iszero\n      iszero\n      mul\n      or\n      swap1\n      sstore\n      pop\n        /* \"project-32/contracts/contract.sol\":2736:2741  tutor */\n      dup3\n        /* \"project-32/contracts/contract.sol\":2702:2777  TutoringSessionBooked(msg.sender, tutor, offer.topic, offer.tokensRequired) */\n      0xffffffffffffffffffffffffffffffffffffffff\n      and\n        /* \"project-32/contracts/contract.sol\":2724:2734  msg.sender */\n      caller\n        /* \"project-32/contracts/contract.sol\":2702:2777  TutoringSessionBooked(msg.sender, tutor, offer.topic, offer.tokensRequired) */\n      0xffffffffffffffffffffffffffffffffffffffff\n      and\n      0x08960a86f8e26ad8a380be6100fb39b40c086f647d48de2419f2279b39fb2d14\n        /* \"project-32/contracts/contract.sol\":2743:2748  offer */\n      dup5\n        /* \"project-32/contracts/contract.sol\":2743:2754  offer.topic */\n      0x01\n      add\n        /* \"project-32/contracts/contract.sol\":2756:2761  offer */\n      dup6\n        /* \"project-32/contracts/contract.sol\":2756:2776  offer.tokensRequired */\n      0x02\n      add\n      sload\n        /* \"project-32/contracts/contract.sol\":2702:2777  TutoringSessionBooked(msg.sender, tutor, offer.topic, offer.tokensRequired) */\n      mload(0x40)\n      tag_46\n      swap3\n      swap2\n      swap1\n      tag_47\n      jump\t// in\n    tag_46:\n      mload(0x40)\n      dup1\n      swap2\n      sub\n      swap1\n      log3\n        /* \"project-32/contracts/contract.sol\":1957:2784  {... */\n      pop\n      pop\n        /* \"project-32/contracts/contract.sol\":1904:2784  function bookTutoringSession(address tutor) external {... */\n      pop\n      jump\t// out\n        /* \"project-32/contracts/contract.sol\":811:866  mapping(address => TutoringOffer) public tutoringOffers */\n    tag_13:\n      mstore(0x20, 0x01)\n      dup1\n      0x00\n      mstore\n      keccak256(0x00, 0x40)\n      0x00\n      swap2\n      pop\n      swap1\n      pop\n      dup1\n      0x00\n      add\n      0x00\n      swap1\n      sload\n      swap1\n      0x0100\n      exp\n      swap1\n      div\n      0xffffffffffffffffffffffffffffffffffffffff\n      and\n      swap1\n      dup1\n      0x01\n      add\n      dup1\n      sload\n      tag_48\n      swap1\n      tag_49\n      jump\t// in\n    tag_48:\n      dup1\n      0x1f\n      add\n      0x20\n      dup1\n      swap2\n      div\n      mul\n      0x20\n      add\n      mload(0x40)\n      swap1\n      dup2\n      add\n      0x40\n      mstore\n      dup1\n      swap3\n      swap2\n      swap1\n      dup2\n      dup2\n      mstore\n      0x20\n      add\n      dup3\n      dup1\n      sload\n      tag_50\n      swap1\n      tag_49\n      jump\t// in\n    tag_50:\n      dup1\n      iszero\n      tag_51\n      jumpi\n      dup1\n      0x1f\n      lt\n      tag_52\n      jumpi\n      0x0100\n      dup1\n      dup4\n      sload\n      div\n      mul\n      dup4\n      mstore\n      swap2\n      0x20\n      add\n      swap2\n      jump(tag_51)\n    tag_52:\n      dup3\n      add\n      swap2\n      swap1\n      0x00\n      mstore\n      keccak256(0x00, 0x20)\n      swap1\n    tag_53:\n      dup2\n      sload\n      dup2\n      mstore\n      swap1\n      0x01\n      add\n      swap1\n      0x20\n      add\n      dup1\n      dup4\n      gt\n      tag_53\n      jumpi\n      dup3\n      swap1\n      sub\n      0x1f\n      and\n      dup3\n      add\n      swap2\n    tag_51:\n      pop\n      pop\n      pop\n      pop\n      pop\n      swap1\n      dup1\n      0x02\n      add\n      sload\n      swap1\n      dup1\n      0x03\n      add\n      0x00\n      swap1\n      sload\n      swap1\n      0x0100\n      exp\n      swap1\n      div\n      0xff\n      and\n      swap1\n      pop\n      dup5\n      jump\t// out\n        /* \"project-32/contracts/contract.sol\":1346:1855  function offerTutoring(string calldata topic, uint256 tokensRequired) external {... */\n    tag_19:\n        /* \"project-32/contracts/contract.sol\":1460:1461  0 */\n      0x00\n        /* \"project-32/contracts/contract.sol\":1443:1457  tokensRequired */\n      dup2\n        /* \"project-32/contracts/contract.sol\":1443:1461  tokensRequired > 0 */\n      gt\n        /* \"project-32/contracts/contract.sol\":1435:1504  require(tokensRequired > 0, \"Tokens required must be greater than 0\") */\n      tag_55\n      jumpi\n      mload(0x40)\n      0x08c379a000000000000000000000000000000000000000000000000000000000\n      dup2\n      mstore\n      0x04\n      add\n      tag_56\n      swap1\n      tag_57\n      jump\t// in\n    tag_56:\n      mload(0x40)\n      dup1\n      swap2\n      sub\n      swap1\n      revert\n    tag_55:\n        /* \"project-32/contracts/contract.sol\":1583:1740  TutoringOffer({... */\n      mload(0x40)\n      dup1\n      0x80\n      add\n      0x40\n      mstore\n      dup1\n        /* \"project-32/contracts/contract.sol\":1618:1628  msg.sender */\n      caller\n        /* \"project-32/contracts/contract.sol\":1583:1740  TutoringOffer({... */\n      0xffffffffffffffffffffffffffffffffffffffff\n      and\n      dup2\n      mstore\n      0x20\n      add\n        /* \"project-32/contracts/contract.sol\":1649:1654  topic */\n      dup5\n      dup5\n        /* \"project-32/contracts/contract.sol\":1583:1740  TutoringOffer({... */\n      dup1\n      dup1\n      0x1f\n      add\n      0x20\n      dup1\n      swap2\n      div\n      mul\n      0x20\n      add\n      mload(0x40)\n      swap1\n      dup2\n      add\n      0x40\n      mstore\n      dup1\n      swap4\n      swap3\n      swap2\n      swap1\n      dup2\n      dup2\n      mstore\n      0x20\n      add\n      dup4\n      dup4\n      dup1\n      dup3\n      dup5\n      calldatacopy\n      0x00\n      dup2\n      dup5\n      add\n      mstore\n      not(0x1f)\n      0x1f\n      dup3\n      add\n      and\n      swap1\n      pop\n      dup1\n      dup4\n      add\n      swap3\n      pop\n      pop\n      pop\n      pop\n      pop\n      pop\n      pop\n      dup2\n      mstore\n      0x20\n      add\n        /* \"project-32/contracts/contract.sol\":1684:1698  tokensRequired */\n      dup3\n        /* \"project-32/contracts/contract.sol\":1583:1740  TutoringOffer({... */\n      dup2\n      mstore\n      0x20\n      add\n        /* \"project-32/contracts/contract.sol\":1725:1729  true */\n      0x01\n        /* \"project-32/contracts/contract.sol\":1583:1740  TutoringOffer({... */\n      iszero\n      iszero\n      dup2\n      mstore\n      pop\n        /* \"project-32/contracts/contract.sol\":1554:1568  tutoringOffers */\n      0x01\n        /* \"project-32/contracts/contract.sol\":1554:1580  tutoringOffers[msg.sender] */\n      0x00\n        /* \"project-32/contracts/contract.sol\":1569:1579  msg.sender */\n      caller\n        /* \"project-32/contracts/contract.sol\":1554:1580  tutoringOffers[msg.sender] */\n      0xffffffffffffffffffffffffffffffffffffffff\n      and\n      0xffffffffffffffffffffffffffffffffffffffff\n      and\n      dup2\n      mstore\n      0x20\n      add\n      swap1\n      dup2\n      mstore\n      0x20\n      add\n      0x00\n      keccak256\n        /* \"project-32/contracts/contract.sol\":1554:1740  tutoringOffers[msg.sender] = TutoringOffer({... */\n      0x00\n      dup3\n      add\n      mload\n      dup2\n      0x00\n      add\n      exp(0x0100, 0x00)\n      dup2\n      sload\n      dup2\n      0xffffffffffffffffffffffffffffffffffffffff\n      mul\n      not\n      and\n      swap1\n      dup4\n      0xffffffffffffffffffffffffffffffffffffffff\n      and\n      mul\n      or\n      swap1\n      sstore\n      pop\n      0x20\n      dup3\n      add\n      mload\n      dup2\n      0x01\n      add\n      swap1\n      dup2\n      tag_58\n      swap2\n      swap1\n      tag_59\n      jump\t// in\n    tag_58:\n      pop\n      0x40\n      dup3\n      add\n      mload\n      dup2\n      0x02\n      add\n      sstore\n      0x60\n      dup3\n      add\n      mload\n      dup2\n      0x03\n      add\n      exp(0x0100, 0x00)\n      dup2\n      sload\n      dup2\n      0xff\n      mul\n      not\n      and\n      swap1\n      dup4\n      iszero\n      iszero\n      mul\n      or\n      swap1\n      sstore\n      pop\n      swap1\n      pop\n      pop\n        /* \"project-32/contracts/contract.sol\":1814:1824  msg.sender */\n      caller\n        /* \"project-32/contracts/contract.sol\":1798:1848  TutoringOffered(msg.sender, topic, tokensRequired) */\n      0xffffffffffffffffffffffffffffffffffffffff\n      and\n      0x2eefc679ec465266993f0e88735d34245f8690611bb53ab1ee9933bb355df40e\n        /* \"project-32/contracts/contract.sol\":1826:1831  topic */\n      dup5\n      dup5\n        /* \"project-32/contracts/contract.sol\":1833:1847  tokensRequired */\n      dup5\n        /* \"project-32/contracts/contract.sol\":1798:1848  TutoringOffered(msg.sender, topic, tokensRequired) */\n      mload(0x40)\n      tag_60\n      swap4\n      swap3\n      swap2\n      swap1\n      tag_61\n      jump\t// in\n    tag_60:\n      mload(0x40)\n      dup1\n      swap2\n      sub\n      swap1\n      log2\n        /* \"project-32/contracts/contract.sol\":1346:1855  function offerTutoring(string calldata topic, uint256 tokensRequired) external {... */\n      pop\n      pop\n      pop\n      jump\t// out\n        /* \"project-32/contracts/contract.sol\":410:429  IToken public token */\n    tag_21:\n      0x00\n      dup1\n      sload\n      swap1\n      0x0100\n      exp\n      swap1\n      div\n      0xffffffffffffffffffffffffffffffffffffffff\n      and\n      dup2\n      jump\t// out\n        /* \"#utility.yul\":88:205   */\n    tag_63:\n        /* \"#utility.yul\":197:198   */\n      0x00\n        /* \"#utility.yul\":194:195   */\n      dup1\n        /* \"#utility.yul\":187:199   */\n      revert\n        /* \"#utility.yul\":211:328   */\n    tag_64:\n        /* \"#utility.yul\":320:321   */\n      0x00\n        /* \"#utility.yul\":317:318   */\n      dup1\n        /* \"#utility.yul\":310:322   */\n      revert\n        /* \"#utility.yul\":334:460   */\n    tag_65:\n        /* \"#utility.yul\":371:378   */\n      0x00\n        /* \"#utility.yul\":411:453   */\n      0xffffffffffffffffffffffffffffffffffffffff\n        /* \"#utility.yul\":404:409   */\n      dup3\n        /* \"#utility.yul\":400:454   */\n      and\n        /* \"#utility.yul\":389:454   */\n      swap1\n      pop\n        /* \"#utility.yul\":334:460   */\n      swap2\n      swap1\n      pop\n      jump\t// out\n        /* \"#utility.yul\":466:562   */\n    tag_66:\n        /* \"#utility.yul\":503:510   */\n      0x00\n        /* \"#utility.yul\":532:556   */\n      tag_126\n        /* \"#utility.yul\":550:555   */\n      dup3\n        /* \"#utility.yul\":532:556   */\n      tag_65\n      jump\t// in\n    tag_126:\n        /* \"#utility.yul\":521:556   */\n      swap1\n      pop\n        /* \"#utility.yul\":466:562   */\n      swap2\n      swap1\n      pop\n      jump\t// out\n        /* \"#utility.yul\":568:690   */\n    tag_67:\n        /* \"#utility.yul\":641:665   */\n      tag_128\n        /* \"#utility.yul\":659:664   */\n      dup2\n        /* \"#utility.yul\":641:665   */\n      tag_66\n      jump\t// in\n    tag_128:\n        /* \"#utility.yul\":634:639   */\n      dup2\n        /* \"#utility.yul\":631:666   */\n      eq\n        /* \"#utility.yul\":621:684   */\n      tag_129\n      jumpi\n        /* \"#utility.yul\":680:681   */\n      0x00\n        /* \"#utility.yul\":677:678   */\n      dup1\n        /* \"#utility.yul\":670:682   */\n      revert\n        /* \"#utility.yul\":621:684   */\n    tag_129:\n        /* \"#utility.yul\":568:690   */\n      pop\n      jump\t// out\n        /* \"#utility.yul\":696:835   */\n    tag_68:\n        /* \"#utility.yul\":742:747   */\n      0x00\n        /* \"#utility.yul\":780:786   */\n      dup2\n        /* \"#utility.yul\":767:787   */\n      calldataload\n        /* \"#utility.yul\":758:787   */\n      swap1\n      pop\n        /* \"#utility.yul\":796:829   */\n      tag_131\n        /* \"#utility.yul\":823:828   */\n      dup2\n        /* \"#utility.yul\":796:829   */\n      tag_67\n      jump\t// in\n    tag_131:\n        /* \"#utility.yul\":696:835   */\n      swap3\n      swap2\n      pop\n      pop\n      jump\t// out\n        /* \"#utility.yul\":841:1170   */\n    tag_9:\n        /* \"#utility.yul\":900:906   */\n      0x00\n        /* \"#utility.yul\":949:951   */\n      0x20\n        /* \"#utility.yul\":937:946   */\n      dup3\n        /* \"#utility.yul\":928:935   */\n      dup5\n        /* \"#utility.yul\":924:947   */\n      sub\n        /* \"#utility.yul\":920:952   */\n      slt\n        /* \"#utility.yul\":917:1036   */\n      iszero\n      tag_133\n      jumpi\n        /* \"#utility.yul\":955:1034   */\n      tag_134\n      tag_63\n      jump\t// in\n    tag_134:\n        /* \"#utility.yul\":917:1036   */\n    tag_133:\n        /* \"#utility.yul\":1075:1076   */\n      0x00\n        /* \"#utility.yul\":1100:1153   */\n      tag_135\n        /* \"#utility.yul\":1145:1152   */\n      dup5\n        /* \"#utility.yul\":1136:1142   */\n      dup3\n        /* \"#utility.yul\":1125:1134   */\n      dup6\n        /* \"#utility.yul\":1121:1143   */\n      add\n        /* \"#utility.yul\":1100:1153   */\n      tag_68\n      jump\t// in\n    tag_135:\n        /* \"#utility.yul\":1090:1153   */\n      swap2\n      pop\n        /* \"#utility.yul\":1046:1163   */\n      pop\n        /* \"#utility.yul\":841:1170   */\n      swap3\n      swap2\n      pop\n      pop\n      jump\t// out\n        /* \"#utility.yul\":1176:1294   */\n    tag_69:\n        /* \"#utility.yul\":1263:1287   */\n      tag_137\n        /* \"#utility.yul\":1281:1286   */\n      dup2\n        /* \"#utility.yul\":1263:1287   */\n      tag_66\n      jump\t// in\n    tag_137:\n        /* \"#utility.yul\":1258:1261   */\n      dup3\n        /* \"#utility.yul\":1251:1288   */\n      mstore\n        /* \"#utility.yul\":1176:1294   */\n      pop\n      pop\n      jump\t// out\n        /* \"#utility.yul\":1300:1399   */\n    tag_70:\n        /* \"#utility.yul\":1352:1358   */\n      0x00\n        /* \"#utility.yul\":1386:1391   */\n      dup2\n        /* \"#utility.yul\":1380:1392   */\n      mload\n        /* \"#utility.yul\":1370:1392   */\n      swap1\n      pop\n        /* \"#utility.yul\":1300:1399   */\n      swap2\n      swap1\n      pop\n      jump\t// out\n        /* \"#utility.yul\":1405:1574   */\n    tag_71:\n        /* \"#utility.yul\":1489:1500   */\n      0x00\n        /* \"#utility.yul\":1523:1529   */\n      dup3\n        /* \"#utility.yul\":1518:1521   */\n      dup3\n        /* \"#utility.yul\":1511:1530   */\n      mstore\n        /* \"#utility.yul\":1563:1567   */\n      0x20\n        /* \"#utility.yul\":1558:1561   */\n      dup3\n        /* \"#utility.yul\":1554:1568   */\n      add\n        /* \"#utility.yul\":1539:1568   */\n      swap1\n      pop\n        /* \"#utility.yul\":1405:1574   */\n      swap3\n      swap2\n      pop\n      pop\n      jump\t// out\n        /* \"#utility.yul\":1580:1719   */\n    tag_72:\n        /* \"#utility.yul\":1669:1675   */\n      dup3\n        /* \"#utility.yul\":1664:1667   */\n      dup2\n        /* \"#utility.yul\":1659:1662   */\n      dup4\n        /* \"#utility.yul\":1653:1676   */\n      mcopy\n        /* \"#utility.yul\":1710:1711   */\n      0x00\n        /* \"#utility.yul\":1701:1707   */\n      dup4\n        /* \"#utility.yul\":1696:1699   */\n      dup4\n        /* \"#utility.yul\":1692:1708   */\n      add\n        /* \"#utility.yul\":1685:1712   */\n      mstore\n        /* \"#utility.yul\":1580:1719   */\n      pop\n      pop\n      pop\n      jump\t// out\n        /* \"#utility.yul\":1725:1827   */\n    tag_73:\n        /* \"#utility.yul\":1766:1772   */\n      0x00\n        /* \"#utility.yul\":1817:1819   */\n      0x1f\n        /* \"#utility.yul\":1813:1820   */\n      not\n        /* \"#utility.yul\":1808:1810   */\n      0x1f\n        /* \"#utility.yul\":1801:1806   */\n      dup4\n        /* \"#utility.yul\":1797:1811   */\n      add\n        /* \"#utility.yul\":1793:1821   */\n      and\n        /* \"#utility.yul\":1783:1821   */\n      swap1\n      pop\n        /* \"#utility.yul\":1725:1827   */\n      swap2\n      swap1\n      pop\n      jump\t// out\n        /* \"#utility.yul\":1833:2210   */\n    tag_74:\n        /* \"#utility.yul\":1921:1924   */\n      0x00\n        /* \"#utility.yul\":1949:1988   */\n      tag_143\n        /* \"#utility.yul\":1982:1987   */\n      dup3\n        /* \"#utility.yul\":1949:1988   */\n      tag_70\n      jump\t// in\n    tag_143:\n        /* \"#utility.yul\":2004:2075   */\n      tag_144\n        /* \"#utility.yul\":2068:2074   */\n      dup2\n        /* \"#utility.yul\":2063:2066   */\n      dup6\n        /* \"#utility.yul\":2004:2075   */\n      tag_71\n      jump\t// in\n    tag_144:\n        /* \"#utility.yul\":1997:2075   */\n      swap4\n      pop\n        /* \"#utility.yul\":2084:2149   */\n      tag_145\n        /* \"#utility.yul\":2142:2148   */\n      dup2\n        /* \"#utility.yul\":2137:2140   */\n      dup6\n        /* \"#utility.yul\":2130:2134   */\n      0x20\n        /* \"#utility.yul\":2123:2128   */\n      dup7\n        /* \"#utility.yul\":2119:2135   */\n      add\n        /* \"#utility.yul\":2084:2149   */\n      tag_72\n      jump\t// in\n    tag_145:\n        /* \"#utility.yul\":2174:2203   */\n      tag_146\n        /* \"#utility.yul\":2196:2202   */\n      dup2\n        /* \"#utility.yul\":2174:2203   */\n      tag_73\n      jump\t// in\n    tag_146:\n        /* \"#utility.yul\":2169:2172   */\n      dup5\n        /* \"#utility.yul\":2165:2204   */\n      add\n        /* \"#utility.yul\":2158:2204   */\n      swap2\n      pop\n        /* \"#utility.yul\":1925:2210   */\n      pop\n        /* \"#utility.yul\":1833:2210   */\n      swap3\n      swap2\n      pop\n      pop\n      jump\t// out\n        /* \"#utility.yul\":2216:2293   */\n    tag_75:\n        /* \"#utility.yul\":2253:2260   */\n      0x00\n        /* \"#utility.yul\":2282:2287   */\n      dup2\n        /* \"#utility.yul\":2271:2287   */\n      swap1\n      pop\n        /* \"#utility.yul\":2216:2293   */\n      swap2\n      swap1\n      pop\n      jump\t// out\n        /* \"#utility.yul\":2299:2417   */\n    tag_76:\n        /* \"#utility.yul\":2386:2410   */\n      tag_149\n        /* \"#utility.yul\":2404:2409   */\n      dup2\n        /* \"#utility.yul\":2386:2410   */\n      tag_75\n      jump\t// in\n    tag_149:\n        /* \"#utility.yul\":2381:2384   */\n      dup3\n        /* \"#utility.yul\":2374:2411   */\n      mstore\n        /* \"#utility.yul\":2299:2417   */\n      pop\n      pop\n      jump\t// out\n        /* \"#utility.yul\":2423:2513   */\n    tag_77:\n        /* \"#utility.yul\":2457:2464   */\n      0x00\n        /* \"#utility.yul\":2500:2505   */\n      dup2\n        /* \"#utility.yul\":2493:2506   */\n      iszero\n        /* \"#utility.yul\":2486:2507   */\n      iszero\n        /* \"#utility.yul\":2475:2507   */\n      swap1\n      pop\n        /* \"#utility.yul\":2423:2513   */\n      swap2\n      swap1\n      pop\n      jump\t// out\n        /* \"#utility.yul\":2519:2628   */\n    tag_78:\n        /* \"#utility.yul\":2600:2621   */\n      tag_152\n        /* \"#utility.yul\":2615:2620   */\n      dup2\n        /* \"#utility.yul\":2600:2621   */\n      tag_77\n      jump\t// in\n    tag_152:\n        /* \"#utility.yul\":2595:2598   */\n      dup3\n        /* \"#utility.yul\":2588:2622   */\n      mstore\n        /* \"#utility.yul\":2519:2628   */\n      pop\n      pop\n      jump\t// out\n        /* \"#utility.yul\":2634:3266   */\n    tag_15:\n        /* \"#utility.yul\":2825:2829   */\n      0x00\n        /* \"#utility.yul\":2863:2866   */\n      0x80\n        /* \"#utility.yul\":2852:2861   */\n      dup3\n        /* \"#utility.yul\":2848:2867   */\n      add\n        /* \"#utility.yul\":2840:2867   */\n      swap1\n      pop\n        /* \"#utility.yul\":2877:2948   */\n      tag_154\n        /* \"#utility.yul\":2945:2946   */\n      0x00\n        /* \"#utility.yul\":2934:2943   */\n      dup4\n        /* \"#utility.yul\":2930:2947   */\n      add\n        /* \"#utility.yul\":2921:2927   */\n      dup8\n        /* \"#utility.yul\":2877:2948   */\n      tag_69\n      jump\t// in\n    tag_154:\n        /* \"#utility.yul\":2995:3004   */\n      dup2\n        /* \"#utility.yul\":2989:2993   */\n      dup2\n        /* \"#utility.yul\":2985:3005   */\n      sub\n        /* \"#utility.yul\":2980:2982   */\n      0x20\n        /* \"#utility.yul\":2969:2978   */\n      dup4\n        /* \"#utility.yul\":2965:2983   */\n      add\n        /* \"#utility.yul\":2958:3006   */\n      mstore\n        /* \"#utility.yul\":3023:3101   */\n      tag_155\n        /* \"#utility.yul\":3096:3100   */\n      dup2\n        /* \"#utility.yul\":3087:3093   */\n      dup7\n        /* \"#utility.yul\":3023:3101   */\n      tag_74\n      jump\t// in\n    tag_155:\n        /* \"#utility.yul\":3015:3101   */\n      swap1\n      pop\n        /* \"#utility.yul\":3111:3183   */\n      tag_156\n        /* \"#utility.yul\":3179:3181   */\n      0x40\n        /* \"#utility.yul\":3168:3177   */\n      dup4\n        /* \"#utility.yul\":3164:3182   */\n      add\n        /* \"#utility.yul\":3155:3161   */\n      dup6\n        /* \"#utility.yul\":3111:3183   */\n      tag_76\n      jump\t// in\n    tag_156:\n        /* \"#utility.yul\":3193:3259   */\n      tag_157\n        /* \"#utility.yul\":3255:3257   */\n      0x60\n        /* \"#utility.yul\":3244:3253   */\n      dup4\n        /* \"#utility.yul\":3240:3258   */\n      add\n        /* \"#utility.yul\":3231:3237   */\n      dup5\n        /* \"#utility.yul\":3193:3259   */\n      tag_78\n      jump\t// in\n    tag_157:\n        /* \"#utility.yul\":2634:3266   */\n      swap6\n      swap5\n      pop\n      pop\n      pop\n      pop\n      pop\n      jump\t// out\n        /* \"#utility.yul\":3272:3389   */\n    tag_79:\n        /* \"#utility.yul\":3381:3382   */\n      0x00\n        /* \"#utility.yul\":3378:3379   */\n      dup1\n        /* \"#utility.yul\":3371:3383   */\n      revert\n        /* \"#utility.yul\":3395:3512   */\n    tag_80:\n        /* \"#utility.yul\":3504:3505   */\n      0x00\n        /* \"#utility.yul\":3501:3502   */\n      dup1\n        /* \"#utility.yul\":3494:3506   */\n      revert\n        /* \"#utility.yul\":3518:3635   */\n    tag_81:\n        /* \"#utility.yul\":3627:3628   */\n      0x00\n        /* \"#utility.yul\":3624:3625   */\n      dup1\n        /* \"#utility.yul\":3617:3629   */\n      revert\n        /* \"#utility.yul\":3655:4208   */\n    tag_82:\n        /* \"#utility.yul\":3713:3721   */\n      0x00\n        /* \"#utility.yul\":3723:3729   */\n      dup1\n        /* \"#utility.yul\":3773:3776   */\n      dup4\n        /* \"#utility.yul\":3766:3770   */\n      0x1f\n        /* \"#utility.yul\":3758:3764   */\n      dup5\n        /* \"#utility.yul\":3754:3771   */\n      add\n        /* \"#utility.yul\":3750:3777   */\n      slt\n        /* \"#utility.yul\":3740:3862   */\n      tag_162\n      jumpi\n        /* \"#utility.yul\":3781:3860   */\n      tag_163\n      tag_79\n      jump\t// in\n    tag_163:\n        /* \"#utility.yul\":3740:3862   */\n    tag_162:\n        /* \"#utility.yul\":3894:3900   */\n      dup3\n        /* \"#utility.yul\":3881:3901   */\n      calldataload\n        /* \"#utility.yul\":3871:3901   */\n      swap1\n      pop\n        /* \"#utility.yul\":3924:3942   */\n      0xffffffffffffffff\n        /* \"#utility.yul\":3916:3922   */\n      dup2\n        /* \"#utility.yul\":3913:3943   */\n      gt\n        /* \"#utility.yul\":3910:4027   */\n      iszero\n      tag_164\n      jumpi\n        /* \"#utility.yul\":3946:4025   */\n      tag_165\n      tag_80\n      jump\t// in\n    tag_165:\n        /* \"#utility.yul\":3910:4027   */\n    tag_164:\n        /* \"#utility.yul\":4060:4064   */\n      0x20\n        /* \"#utility.yul\":4052:4058   */\n      dup4\n        /* \"#utility.yul\":4048:4065   */\n      add\n        /* \"#utility.yul\":4036:4065   */\n      swap2\n      pop\n        /* \"#utility.yul\":4114:4117   */\n      dup4\n        /* \"#utility.yul\":4106:4110   */\n      0x01\n        /* \"#utility.yul\":4098:4104   */\n      dup3\n        /* \"#utility.yul\":4094:4111   */\n      mul\n        /* \"#utility.yul\":4084:4092   */\n      dup4\n        /* \"#utility.yul\":4080:4112   */\n      add\n        /* \"#utility.yul\":4077:4118   */\n      gt\n        /* \"#utility.yul\":4074:4202   */\n      iszero\n      tag_166\n      jumpi\n        /* \"#utility.yul\":4121:4200   */\n      tag_167\n      tag_81\n      jump\t// in\n    tag_167:\n        /* \"#utility.yul\":4074:4202   */\n    tag_166:\n        /* \"#utility.yul\":3655:4208   */\n      swap3\n      pop\n      swap3\n      swap1\n      pop\n      jump\t// out\n        /* \"#utility.yul\":4214:4336   */\n    tag_83:\n        /* \"#utility.yul\":4287:4311   */\n      tag_169\n        /* \"#utility.yul\":4305:4310   */\n      dup2\n        /* \"#utility.yul\":4287:4311   */\n      tag_75\n      jump\t// in\n    tag_169:\n        /* \"#utility.yul\":4280:4285   */\n      dup2\n        /* \"#utility.yul\":4277:4312   */\n      eq\n        /* \"#utility.yul\":4267:4330   */\n      tag_170\n      jumpi\n        /* \"#utility.yul\":4326:4327   */\n      0x00\n        /* \"#utility.yul\":4323:4324   */\n      dup1\n        /* \"#utility.yul\":4316:4328   */\n      revert\n        /* \"#utility.yul\":4267:4330   */\n    tag_170:\n        /* \"#utility.yul\":4214:4336   */\n      pop\n      jump\t// out\n        /* \"#utility.yul\":4342:4481   */\n    tag_84:\n        /* \"#utility.yul\":4388:4393   */\n      0x00\n        /* \"#utility.yul\":4426:4432   */\n      dup2\n        /* \"#utility.yul\":4413:4433   */\n      calldataload\n        /* \"#utility.yul\":4404:4433   */\n      swap1\n      pop\n        /* \"#utility.yul\":4442:4475   */\n      tag_172\n        /* \"#utility.yul\":4469:4474   */\n      dup2\n        /* \"#utility.yul\":4442:4475   */\n      tag_83\n      jump\t// in\n    tag_172:\n        /* \"#utility.yul\":4342:4481   */\n      swap3\n      swap2\n      pop\n      pop\n      jump\t// out\n        /* \"#utility.yul\":4487:5161   */\n    tag_18:\n        /* \"#utility.yul\":4567:4573   */\n      0x00\n        /* \"#utility.yul\":4575:4581   */\n      dup1\n        /* \"#utility.yul\":4583:4589   */\n      0x00\n        /* \"#utility.yul\":4632:4634   */\n      0x40\n        /* \"#utility.yul\":4620:4629   */\n      dup5\n        /* \"#utility.yul\":4611:4618   */\n      dup7\n        /* \"#utility.yul\":4607:4630   */\n      sub\n        /* \"#utility.yul\":4603:4635   */\n      slt\n        /* \"#utility.yul\":4600:4719   */\n      iszero\n      tag_174\n      jumpi\n        /* \"#utility.yul\":4638:4717   */\n      tag_175\n      tag_63\n      jump\t// in\n    tag_175:\n        /* \"#utility.yul\":4600:4719   */\n    tag_174:\n        /* \"#utility.yul\":4786:4787   */\n      0x00\n        /* \"#utility.yul\":4775:4784   */\n      dup5\n        /* \"#utility.yul\":4771:4788   */\n      add\n        /* \"#utility.yul\":4758:4789   */\n      calldataload\n        /* \"#utility.yul\":4816:4834   */\n      0xffffffffffffffff\n        /* \"#utility.yul\":4808:4814   */\n      dup2\n        /* \"#utility.yul\":4805:4835   */\n      gt\n        /* \"#utility.yul\":4802:4919   */\n      iszero\n      tag_176\n      jumpi\n        /* \"#utility.yul\":4838:4917   */\n      tag_177\n      tag_64\n      jump\t// in\n    tag_177:\n        /* \"#utility.yul\":4802:4919   */\n    tag_176:\n        /* \"#utility.yul\":4951:5016   */\n      tag_178\n        /* \"#utility.yul\":5008:5015   */\n      dup7\n        /* \"#utility.yul\":4999:5005   */\n      dup3\n        /* \"#utility.yul\":4988:4997   */\n      dup8\n        /* \"#utility.yul\":4984:5006   */\n      add\n        /* \"#utility.yul\":4951:5016   */\n      tag_82\n      jump\t// in\n    tag_178:\n        /* \"#utility.yul\":4933:5016   */\n      swap4\n      pop\n      swap4\n      pop\n        /* \"#utility.yul\":4729:5026   */\n      pop\n        /* \"#utility.yul\":5065:5067   */\n      0x20\n        /* \"#utility.yul\":5091:5144   */\n      tag_179\n        /* \"#utility.yul\":5136:5143   */\n      dup7\n        /* \"#utility.yul\":5127:5133   */\n      dup3\n        /* \"#utility.yul\":5116:5125   */\n      dup8\n        /* \"#utility.yul\":5112:5134   */\n      add\n        /* \"#utility.yul\":5091:5144   */\n      tag_84\n      jump\t// in\n    tag_179:\n        /* \"#utility.yul\":5081:5144   */\n      swap2\n      pop\n        /* \"#utility.yul\":5036:5154   */\n      pop\n        /* \"#utility.yul\":4487:5161   */\n      swap3\n      pop\n      swap3\n      pop\n      swap3\n      jump\t// out\n        /* \"#utility.yul\":5167:5227   */\n    tag_85:\n        /* \"#utility.yul\":5195:5198   */\n      0x00\n        /* \"#utility.yul\":5216:5221   */\n      dup2\n        /* \"#utility.yul\":5209:5221   */\n      swap1\n      pop\n        /* \"#utility.yul\":5167:5227   */\n      swap2\n      swap1\n      pop\n      jump\t// out\n        /* \"#utility.yul\":5233:5375   */\n    tag_86:\n        /* \"#utility.yul\":5283:5292   */\n      0x00\n        /* \"#utility.yul\":5316:5369   */\n      tag_182\n        /* \"#utility.yul\":5334:5368   */\n      tag_183\n        /* \"#utility.yul\":5343:5367   */\n      tag_184\n        /* \"#utility.yul\":5361:5366   */\n      dup5\n        /* \"#utility.yul\":5343:5367   */\n      tag_65\n      jump\t// in\n    tag_184:\n        /* \"#utility.yul\":5334:5368   */\n      tag_85\n      jump\t// in\n    tag_183:\n        /* \"#utility.yul\":5316:5369   */\n      tag_65\n      jump\t// in\n    tag_182:\n        /* \"#utility.yul\":5303:5369   */\n      swap1\n      pop\n        /* \"#utility.yul\":5233:5375   */\n      swap2\n      swap1\n      pop\n      jump\t// out\n        /* \"#utility.yul\":5381:5507   */\n    tag_87:\n        /* \"#utility.yul\":5431:5440   */\n      0x00\n        /* \"#utility.yul\":5464:5501   */\n      tag_186\n        /* \"#utility.yul\":5495:5500   */\n      dup3\n        /* \"#utility.yul\":5464:5501   */\n      tag_86\n      jump\t// in\n    tag_186:\n        /* \"#utility.yul\":5451:5501   */\n      swap1\n      pop\n        /* \"#utility.yul\":5381:5507   */\n      swap2\n      swap1\n      pop\n      jump\t// out\n        /* \"#utility.yul\":5513:5652   */\n    tag_88:\n        /* \"#utility.yul\":5576:5585   */\n      0x00\n        /* \"#utility.yul\":5609:5646   */\n      tag_188\n        /* \"#utility.yul\":5640:5645   */\n      dup3\n        /* \"#utility.yul\":5609:5646   */\n      tag_87\n      jump\t// in\n    tag_188:\n        /* \"#utility.yul\":5596:5646   */\n      swap1\n      pop\n        /* \"#utility.yul\":5513:5652   */\n      swap2\n      swap1\n      pop\n      jump\t// out\n        /* \"#utility.yul\":5658:5815   */\n    tag_89:\n        /* \"#utility.yul\":5758:5808   */\n      tag_190\n        /* \"#utility.yul\":5802:5807   */\n      dup2\n        /* \"#utility.yul\":5758:5808   */\n      tag_88\n      jump\t// in\n    tag_190:\n        /* \"#utility.yul\":5753:5756   */\n      dup3\n        /* \"#utility.yul\":5746:5809   */\n      mstore\n        /* \"#utility.yul\":5658:5815   */\n      pop\n      pop\n      jump\t// out\n        /* \"#utility.yul\":5821:6069   */\n    tag_23:\n        /* \"#utility.yul\":5927:5931   */\n      0x00\n        /* \"#utility.yul\":5965:5967   */\n      0x20\n        /* \"#utility.yul\":5954:5963   */\n      dup3\n        /* \"#utility.yul\":5950:5968   */\n      add\n        /* \"#utility.yul\":5942:5968   */\n      swap1\n      pop\n        /* \"#utility.yul\":5978:6062   */\n      tag_192\n        /* \"#utility.yul\":6059:6060   */\n      0x00\n        /* \"#utility.yul\":6048:6057   */\n      dup4\n        /* \"#utility.yul\":6044:6061   */\n      add\n        /* \"#utility.yul\":6035:6041   */\n      dup5\n        /* \"#utility.yul\":5978:6062   */\n      tag_89\n      jump\t// in\n    tag_192:\n        /* \"#utility.yul\":5821:6069   */\n      swap3\n      swap2\n      pop\n      pop\n      jump\t// out\n        /* \"#utility.yul\":6075:6295   */\n    tag_90:\n        /* \"#utility.yul\":6215:6249   */\n      0x54686973207475746f72206973206e6f206c6f6e67657220617661696c61626c\n        /* \"#utility.yul\":6211:6212   */\n      0x00\n        /* \"#utility.yul\":6203:6209   */\n      dup3\n        /* \"#utility.yul\":6199:6213   */\n      add\n        /* \"#utility.yul\":6192:6250   */\n      mstore\n        /* \"#utility.yul\":6284:6287   */\n      0x6500000000000000000000000000000000000000000000000000000000000000\n        /* \"#utility.yul\":6279:6281   */\n      0x20\n        /* \"#utility.yul\":6271:6277   */\n      dup3\n        /* \"#utility.yul\":6267:6282   */\n      add\n        /* \"#utility.yul\":6260:6288   */\n      mstore\n        /* \"#utility.yul\":6075:6295   */\n      pop\n      jump\t// out\n        /* \"#utility.yul\":6301:6667   */\n    tag_91:\n        /* \"#utility.yul\":6443:6446   */\n      0x00\n        /* \"#utility.yul\":6464:6531   */\n      tag_195\n        /* \"#utility.yul\":6528:6530   */\n      0x21\n        /* \"#utility.yul\":6523:6526   */\n      dup4\n        /* \"#utility.yul\":6464:6531   */\n      tag_71\n      jump\t// in\n    tag_195:\n        /* \"#utility.yul\":6457:6531   */\n      swap2\n      pop\n        /* \"#utility.yul\":6540:6633   */\n      tag_196\n        /* \"#utility.yul\":6629:6632   */\n      dup3\n        /* \"#utility.yul\":6540:6633   */\n      tag_90\n      jump\t// in\n    tag_196:\n        /* \"#utility.yul\":6658:6660   */\n      0x40\n        /* \"#utility.yul\":6653:6656   */\n      dup3\n        /* \"#utility.yul\":6649:6661   */\n      add\n        /* \"#utility.yul\":6642:6661   */\n      swap1\n      pop\n        /* \"#utility.yul\":6301:6667   */\n      swap2\n      swap1\n      pop\n      jump\t// out\n        /* \"#utility.yul\":6673:7092   */\n    tag_27:\n        /* \"#utility.yul\":6839:6843   */\n      0x00\n        /* \"#utility.yul\":6877:6879   */\n      0x20\n        /* \"#utility.yul\":6866:6875   */\n      dup3\n        /* \"#utility.yul\":6862:6880   */\n      add\n        /* \"#utility.yul\":6854:6880   */\n      swap1\n      pop\n        /* \"#utility.yul\":6926:6935   */\n      dup2\n        /* \"#utility.yul\":6920:6924   */\n      dup2\n        /* \"#utility.yul\":6916:6936   */\n      sub\n        /* \"#utility.yul\":6912:6913   */\n      0x00\n        /* \"#utility.yul\":6901:6910   */\n      dup4\n        /* \"#utility.yul\":6897:6914   */\n      add\n        /* \"#utility.yul\":6890:6937   */\n      mstore\n        /* \"#utility.yul\":6954:7085   */\n      tag_198\n        /* \"#utility.yul\":7080:7084   */\n      dup2\n        /* \"#utility.yul\":6954:7085   */\n      tag_91\n      jump\t// in\n    tag_198:\n        /* \"#utility.yul\":6946:7085   */\n      swap1\n      pop\n        /* \"#utility.yul\":6673:7092   */\n      swap2\n      swap1\n      pop\n      jump\t// out\n        /* \"#utility.yul\":7098:7327   */\n    tag_92:\n        /* \"#utility.yul\":7238:7272   */\n      0x54686973207475746f7220686173206e6f742073657420612076616c69642074\n        /* \"#utility.yul\":7234:7235   */\n      0x00\n        /* \"#utility.yul\":7226:7232   */\n      dup3\n        /* \"#utility.yul\":7222:7236   */\n      add\n        /* \"#utility.yul\":7215:7273   */\n      mstore\n        /* \"#utility.yul\":7307:7319   */\n      0x6f6b656e20707269636500000000000000000000000000000000000000000000\n        /* \"#utility.yul\":7302:7304   */\n      0x20\n        /* \"#utility.yul\":7294:7300   */\n      dup3\n        /* \"#utility.yul\":7290:7305   */\n      add\n        /* \"#utility.yul\":7283:7320   */\n      mstore\n        /* \"#utility.yul\":7098:7327   */\n      pop\n      jump\t// out\n        /* \"#utility.yul\":7333:7699   */\n    tag_93:\n        /* \"#utility.yul\":7475:7478   */\n      0x00\n        /* \"#utility.yul\":7496:7563   */\n      tag_201\n        /* \"#utility.yul\":7560:7562   */\n      0x2a\n        /* \"#utility.yul\":7555:7558   */\n      dup4\n        /* \"#utility.yul\":7496:7563   */\n      tag_71\n      jump\t// in\n    tag_201:\n        /* \"#utility.yul\":7489:7563   */\n      swap2\n      pop\n        /* \"#utility.yul\":7572:7665   */\n      tag_202\n        /* \"#utility.yul\":7661:7664   */\n      dup3\n        /* \"#utility.yul\":7572:7665   */\n      tag_92\n      jump\t// in\n    tag_202:\n        /* \"#utility.yul\":7690:7692   */\n      0x40\n        /* \"#utility.yul\":7685:7688   */\n      dup3\n        /* \"#utility.yul\":7681:7693   */\n      add\n        /* \"#utility.yul\":7674:7693   */\n      swap1\n      pop\n        /* \"#utility.yul\":7333:7699   */\n      swap2\n      swap1\n      pop\n      jump\t// out\n        /* \"#utility.yul\":7705:8124   */\n    tag_30:\n        /* \"#utility.yul\":7871:7875   */\n      0x00\n        /* \"#utility.yul\":7909:7911   */\n      0x20\n        /* \"#utility.yul\":7898:7907   */\n      dup3\n        /* \"#utility.yul\":7894:7912   */\n      add\n        /* \"#utility.yul\":7886:7912   */\n      swap1\n      pop\n        /* \"#utility.yul\":7958:7967   */\n      dup2\n        /* \"#utility.yul\":7952:7956   */\n      dup2\n        /* \"#utility.yul\":7948:7968   */\n      sub\n        /* \"#utility.yul\":7944:7945   */\n      0x00\n        /* \"#utility.yul\":7933:7942   */\n      dup4\n        /* \"#utility.yul\":7929:7946   */\n      add\n        /* \"#utility.yul\":7922:7969   */\n      mstore\n        /* \"#utility.yul\":7986:8117   */\n      tag_204\n        /* \"#utility.yul\":8112:8116   */\n      dup2\n        /* \"#utility.yul\":7986:8117   */\n      tag_93\n      jump\t// in\n    tag_204:\n        /* \"#utility.yul\":7978:8117   */\n      swap1\n      pop\n        /* \"#utility.yul\":7705:8124   */\n      swap2\n      swap1\n      pop\n      jump\t// out\n        /* \"#utility.yul\":8130:8352   */\n    tag_32:\n        /* \"#utility.yul\":8223:8227   */\n      0x00\n        /* \"#utility.yul\":8261:8263   */\n      0x20\n        /* \"#utility.yul\":8250:8259   */\n      dup3\n        /* \"#utility.yul\":8246:8264   */\n      add\n        /* \"#utility.yul\":8238:8264   */\n      swap1\n      pop\n        /* \"#utility.yul\":8274:8345   */\n      tag_206\n        /* \"#utility.yul\":8342:8343   */\n      0x00\n        /* \"#utility.yul\":8331:8340   */\n      dup4\n        /* \"#utility.yul\":8327:8344   */\n      add\n        /* \"#utility.yul\":8318:8324   */\n      dup5\n        /* \"#utility.yul\":8274:8345   */\n      tag_69\n      jump\t// in\n    tag_206:\n        /* \"#utility.yul\":8130:8352   */\n      swap3\n      swap2\n      pop\n      pop\n      jump\t// out\n        /* \"#utility.yul\":8358:8501   */\n    tag_94:\n        /* \"#utility.yul\":8415:8420   */\n      0x00\n        /* \"#utility.yul\":8446:8452   */\n      dup2\n        /* \"#utility.yul\":8440:8453   */\n      mload\n        /* \"#utility.yul\":8431:8453   */\n      swap1\n      pop\n        /* \"#utility.yul\":8462:8495   */\n      tag_208\n        /* \"#utility.yul\":8489:8494   */\n      dup2\n        /* \"#utility.yul\":8462:8495   */\n      tag_83\n      jump\t// in\n    tag_208:\n        /* \"#utility.yul\":8358:8501   */\n      swap3\n      swap2\n      pop\n      pop\n      jump\t// out\n        /* \"#utility.yul\":8507:8858   */\n    tag_36:\n        /* \"#utility.yul\":8577:8583   */\n      0x00\n        /* \"#utility.yul\":8626:8628   */\n      0x20\n        /* \"#utility.yul\":8614:8623   */\n      dup3\n        /* \"#utility.yul\":8605:8612   */\n      dup5\n        /* \"#utility.yul\":8601:8624   */\n      sub\n        /* \"#utility.yul\":8597:8629   */\n      slt\n        /* \"#utility.yul\":8594:8713   */\n      iszero\n      tag_210\n      jumpi\n        /* \"#utility.yul\":8632:8711   */\n      tag_211\n      tag_63\n      jump\t// in\n    tag_211:\n        /* \"#utility.yul\":8594:8713   */\n    tag_210:\n        /* \"#utility.yul\":8752:8753   */\n      0x00\n        /* \"#utility.yul\":8777:8841   */\n      tag_212\n        /* \"#utility.yul\":8833:8840   */\n      dup5\n        /* \"#utility.yul\":8824:8830   */\n      dup3\n        /* \"#utility.yul\":8813:8822   */\n      dup6\n        /* \"#utility.yul\":8809:8831   */\n      add\n        /* \"#utility.yul\":8777:8841   */\n      tag_94\n      jump\t// in\n    tag_212:\n        /* \"#utility.yul\":8767:8841   */\n      swap2\n      pop\n        /* \"#utility.yul\":8723:8851   */\n      pop\n        /* \"#utility.yul\":8507:8858   */\n      swap3\n      swap2\n      pop\n      pop\n      jump\t// out\n        /* \"#utility.yul\":8864:9095   */\n    tag_95:\n        /* \"#utility.yul\":9004:9038   */\n      0x496e73756666696369656e7420746f6b656e7320746f20626f6f6b207475746f\n        /* \"#utility.yul\":9000:9001   */\n      0x00\n        /* \"#utility.yul\":8992:8998   */\n      dup3\n        /* \"#utility.yul\":8988:9002   */\n      add\n        /* \"#utility.yul\":8981:9039   */\n      mstore\n        /* \"#utility.yul\":9073:9087   */\n      0x72696e672073657373696f6e0000000000000000000000000000000000000000\n        /* \"#utility.yul\":9068:9070   */\n      0x20\n        /* \"#utility.yul\":9060:9066   */\n      dup3\n        /* \"#utility.yul\":9056:9071   */\n      add\n        /* \"#utility.yul\":9049:9088   */\n      mstore\n        /* \"#utility.yul\":8864:9095   */\n      pop\n      jump\t// out\n        /* \"#utility.yul\":9101:9467   */\n    tag_96:\n        /* \"#utility.yul\":9243:9246   */\n      0x00\n        /* \"#utility.yul\":9264:9331   */\n      tag_215\n        /* \"#utility.yul\":9328:9330   */\n      0x2c\n        /* \"#utility.yul\":9323:9326   */\n      dup4\n        /* \"#utility.yul\":9264:9331   */\n      tag_71\n      jump\t// in\n    tag_215:\n        /* \"#utility.yul\":9257:9331   */\n      swap2\n      pop\n        /* \"#utility.yul\":9340:9433   */\n      tag_216\n        /* \"#utility.yul\":9429:9432   */\n      dup3\n        /* \"#utility.yul\":9340:9433   */\n      tag_95\n      jump\t// in\n    tag_216:\n        /* \"#utility.yul\":9458:9460   */\n      0x40\n        /* \"#utility.yul\":9453:9456   */\n      dup3\n        /* \"#utility.yul\":9449:9461   */\n      add\n        /* \"#utility.yul\":9442:9461   */\n      swap1\n      pop\n        /* \"#utility.yul\":9101:9467   */\n      swap2\n      swap1\n      pop\n      jump\t// out\n        /* \"#utility.yul\":9473:9892   */\n    tag_39:\n        /* \"#utility.yul\":9639:9643   */\n      0x00\n        /* \"#utility.yul\":9677:9679   */\n      0x20\n        /* \"#utility.yul\":9666:9675   */\n      dup3\n        /* \"#utility.yul\":9662:9680   */\n      add\n        /* \"#utility.yul\":9654:9680   */\n      swap1\n      pop\n        /* \"#utility.yul\":9726:9735   */\n      dup2\n        /* \"#utility.yul\":9720:9724   */\n      dup2\n        /* \"#utility.yul\":9716:9736   */\n      sub\n        /* \"#utility.yul\":9712:9713   */\n      0x00\n        /* \"#utility.yul\":9701:9710   */\n      dup4\n        /* \"#utility.yul\":9697:9714   */\n      add\n        /* \"#utility.yul\":9690:9737   */\n      mstore\n        /* \"#utility.yul\":9754:9885   */\n      tag_218\n        /* \"#utility.yul\":9880:9884   */\n      dup2\n        /* \"#utility.yul\":9754:9885   */\n      tag_96\n      jump\t// in\n    tag_218:\n        /* \"#utility.yul\":9746:9885   */\n      swap1\n      pop\n        /* \"#utility.yul\":9473:9892   */\n      swap2\n      swap1\n      pop\n      jump\t// out\n        /* \"#utility.yul\":9898:10340   */\n    tag_41:\n        /* \"#utility.yul\":10047:10051   */\n      0x00\n        /* \"#utility.yul\":10085:10087   */\n      0x60\n        /* \"#utility.yul\":10074:10083   */\n      dup3\n        /* \"#utility.yul\":10070:10088   */\n      add\n        /* \"#utility.yul\":10062:10088   */\n      swap1\n      pop\n        /* \"#utility.yul\":10098:10169   */\n      tag_220\n        /* \"#utility.yul\":10166:10167   */\n      0x00\n        /* \"#utility.yul\":10155:10164   */\n      dup4\n        /* \"#utility.yul\":10151:10168   */\n      add\n        /* \"#utility.yul\":10142:10148   */\n      dup7\n        /* \"#utility.yul\":10098:10169   */\n      tag_69\n      jump\t// in\n    tag_220:\n        /* \"#utility.yul\":10179:10251   */\n      tag_221\n        /* \"#utility.yul\":10247:10249   */\n      0x20\n        /* \"#utility.yul\":10236:10245   */\n      dup4\n        /* \"#utility.yul\":10232:10250   */\n      add\n        /* \"#utility.yul\":10223:10229   */\n      dup6\n        /* \"#utility.yul\":10179:10251   */\n      tag_69\n      jump\t// in\n    tag_221:\n        /* \"#utility.yul\":10261:10333   */\n      tag_222\n        /* \"#utility.yul\":10329:10331   */\n      0x40\n        /* \"#utility.yul\":10318:10327   */\n      dup4\n        /* \"#utility.yul\":10314:10332   */\n      add\n        /* \"#utility.yul\":10305:10311   */\n      dup5\n        /* \"#utility.yul\":10261:10333   */\n      tag_76\n      jump\t// in\n    tag_222:\n        /* \"#utility.yul\":9898:10340   */\n      swap5\n      swap4\n      pop\n      pop\n      pop\n      pop\n      jump\t// out\n        /* \"#utility.yul\":10346:10462   */\n    tag_97:\n        /* \"#utility.yul\":10416:10437   */\n      tag_224\n        /* \"#utility.yul\":10431:10436   */\n      dup2\n        /* \"#utility.yul\":10416:10437   */\n      tag_77\n      jump\t// in\n    tag_224:\n        /* \"#utility.yul\":10409:10414   */\n      dup2\n        /* \"#utility.yul\":10406:10438   */\n      eq\n        /* \"#utility.yul\":10396:10456   */\n      tag_225\n      jumpi\n        /* \"#utility.yul\":10452:10453   */\n      0x00\n        /* \"#utility.yul\":10449:10450   */\n      dup1\n        /* \"#utility.yul\":10442:10454   */\n      revert\n        /* \"#utility.yul\":10396:10456   */\n    tag_225:\n        /* \"#utility.yul\":10346:10462   */\n      pop\n      jump\t// out\n        /* \"#utility.yul\":10468:10605   */\n    tag_98:\n        /* \"#utility.yul\":10522:10527   */\n      0x00\n        /* \"#utility.yul\":10553:10559   */\n      dup2\n        /* \"#utility.yul\":10547:10560   */\n      mload\n        /* \"#utility.yul\":10538:10560   */\n      swap1\n      pop\n        /* \"#utility.yul\":10569:10599   */\n      tag_227\n        /* \"#utility.yul\":10593:10598   */\n      dup2\n        /* \"#utility.yul\":10569:10599   */\n      tag_97\n      jump\t// in\n    tag_227:\n        /* \"#utility.yul\":10468:10605   */\n      swap3\n      swap2\n      pop\n      pop\n      jump\t// out\n        /* \"#utility.yul\":10611:10956   */\n    tag_45:\n        /* \"#utility.yul\":10678:10684   */\n      0x00\n        /* \"#utility.yul\":10727:10729   */\n      0x20\n        /* \"#utility.yul\":10715:10724   */\n      dup3\n        /* \"#utility.yul\":10706:10713   */\n      dup5\n        /* \"#utility.yul\":10702:10725   */\n      sub\n        /* \"#utility.yul\":10698:10730   */\n      slt\n        /* \"#utility.yul\":10695:10814   */\n      iszero\n      tag_229\n      jumpi\n        /* \"#utility.yul\":10733:10812   */\n      tag_230\n      tag_63\n      jump\t// in\n    tag_230:\n        /* \"#utility.yul\":10695:10814   */\n    tag_229:\n        /* \"#utility.yul\":10853:10854   */\n      0x00\n        /* \"#utility.yul\":10878:10939   */\n      tag_231\n        /* \"#utility.yul\":10931:10938   */\n      dup5\n        /* \"#utility.yul\":10922:10928   */\n      dup3\n        /* \"#utility.yul\":10911:10920   */\n      dup6\n        /* \"#utility.yul\":10907:10929   */\n      add\n        /* \"#utility.yul\":10878:10939   */\n      tag_98\n      jump\t// in\n    tag_231:\n        /* \"#utility.yul\":10868:10939   */\n      swap2\n      pop\n        /* \"#utility.yul\":10824:10949   */\n      pop\n        /* \"#utility.yul\":10611:10956   */\n      swap3\n      swap2\n      pop\n      pop\n      jump\t// out\n        /* \"#utility.yul\":10962:11142   */\n    tag_99:\n        /* \"#utility.yul\":11010:11087   */\n      0x4e487b7100000000000000000000000000000000000000000000000000000000\n        /* \"#utility.yul\":11007:11008   */\n      0x00\n        /* \"#utility.yul\":11000:11088   */\n      mstore\n        /* \"#utility.yul\":11107:11111   */\n      0x22\n        /* \"#utility.yul\":11104:11105   */\n      0x04\n        /* \"#utility.yul\":11097:11112   */\n      mstore\n        /* \"#utility.yul\":11131:11135   */\n      0x24\n        /* \"#utility.yul\":11128:11129   */\n      0x00\n        /* \"#utility.yul\":11121:11136   */\n      revert\n        /* \"#utility.yul\":11148:11468   */\n    tag_49:\n        /* \"#utility.yul\":11192:11198   */\n      0x00\n        /* \"#utility.yul\":11229:11230   */\n      0x02\n        /* \"#utility.yul\":11223:11227   */\n      dup3\n        /* \"#utility.yul\":11219:11231   */\n      div\n        /* \"#utility.yul\":11209:11231   */\n      swap1\n      pop\n        /* \"#utility.yul\":11276:11277   */\n      0x01\n        /* \"#utility.yul\":11270:11274   */\n      dup3\n        /* \"#utility.yul\":11266:11278   */\n      and\n        /* \"#utility.yul\":11297:11315   */\n      dup1\n        /* \"#utility.yul\":11287:11368   */\n      tag_234\n      jumpi\n        /* \"#utility.yul\":11353:11357   */\n      0x7f\n        /* \"#utility.yul\":11345:11351   */\n      dup3\n        /* \"#utility.yul\":11341:11358   */\n      and\n        /* \"#utility.yul\":11331:11358   */\n      swap2\n      pop\n        /* \"#utility.yul\":11287:11368   */\n    tag_234:\n        /* \"#utility.yul\":11415:11417   */\n      0x20\n        /* \"#utility.yul\":11407:11413   */\n      dup3\n        /* \"#utility.yul\":11404:11418   */\n      lt\n        /* \"#utility.yul\":11384:11402   */\n      dup2\n        /* \"#utility.yul\":11381:11419   */\n      sub\n        /* \"#utility.yul\":11378:11462   */\n      tag_235\n      jumpi\n        /* \"#utility.yul\":11434:11452   */\n      tag_236\n      tag_99\n      jump\t// in\n    tag_236:\n        /* \"#utility.yul\":11378:11462   */\n    tag_235:\n        /* \"#utility.yul\":11199:11468   */\n      pop\n        /* \"#utility.yul\":11148:11468   */\n      swap2\n      swap1\n      pop\n      jump\t// out\n        /* \"#utility.yul\":11474:11615   */\n    tag_100:\n        /* \"#utility.yul\":11523:11527   */\n      0x00\n        /* \"#utility.yul\":11546:11549   */\n      dup2\n        /* \"#utility.yul\":11538:11549   */\n      swap1\n      pop\n        /* \"#utility.yul\":11569:11572   */\n      dup2\n        /* \"#utility.yul\":11566:11567   */\n      0x00\n        /* \"#utility.yul\":11559:11573   */\n      mstore\n        /* \"#utility.yul\":11603:11607   */\n      0x20\n        /* \"#utility.yul\":11600:11601   */\n      0x00\n        /* \"#utility.yul\":11590:11608   */\n      keccak256\n        /* \"#utility.yul\":11582:11608   */\n      swap1\n      pop\n        /* \"#utility.yul\":11474:11615   */\n      swap2\n      swap1\n      pop\n      jump\t// out\n        /* \"#utility.yul\":11645:12476   */\n    tag_101:\n        /* \"#utility.yul\":11730:11733   */\n      0x00\n        /* \"#utility.yul\":11767:11772   */\n      dup2\n        /* \"#utility.yul\":11761:11773   */\n      sload\n        /* \"#utility.yul\":11796:11832   */\n      tag_239\n        /* \"#utility.yul\":11822:11831   */\n      dup2\n        /* \"#utility.yul\":11796:11832   */\n      tag_49\n      jump\t// in\n    tag_239:\n        /* \"#utility.yul\":11848:11919   */\n      tag_240\n        /* \"#utility.yul\":11912:11918   */\n      dup2\n        /* \"#utility.yul\":11907:11910   */\n      dup7\n        /* \"#utility.yul\":11848:11919   */\n      tag_71\n      jump\t// in\n    tag_240:\n        /* \"#utility.yul\":11841:11919   */\n      swap5\n      pop\n        /* \"#utility.yul\":11950:11951   */\n      0x01\n        /* \"#utility.yul\":11939:11948   */\n      dup3\n        /* \"#utility.yul\":11935:11952   */\n      and\n        /* \"#utility.yul\":11966:11967   */\n      0x00\n        /* \"#utility.yul\":11961:12125   */\n      dup2\n      eq\n      tag_242\n      jumpi\n        /* \"#utility.yul\":12139:12140   */\n      0x01\n        /* \"#utility.yul\":12134:12470   */\n      dup2\n      eq\n      tag_243\n      jumpi\n        /* \"#utility.yul\":11928:12470   */\n      jump(tag_241)\n        /* \"#utility.yul\":11961:12125   */\n    tag_242:\n        /* \"#utility.yul\":12045:12049   */\n      0xff\n        /* \"#utility.yul\":12041:12050   */\n      not\n        /* \"#utility.yul\":12030:12039   */\n      dup4\n        /* \"#utility.yul\":12026:12051   */\n      and\n        /* \"#utility.yul\":12021:12024   */\n      dup7\n        /* \"#utility.yul\":12014:12052   */\n      mstore\n        /* \"#utility.yul\":12105:12111   */\n      dup2\n        /* \"#utility.yul\":12098:12112   */\n      iszero\n        /* \"#utility.yul\":12091:12113   */\n      iszero\n        /* \"#utility.yul\":12085:12089   */\n      0x20\n        /* \"#utility.yul\":12081:12114   */\n      mul\n        /* \"#utility.yul\":12076:12079   */\n      dup7\n        /* \"#utility.yul\":12072:12115   */\n      add\n        /* \"#utility.yul\":12065:12115   */\n      swap4\n      pop\n        /* \"#utility.yul\":11961:12125   */\n      jump(tag_241)\n        /* \"#utility.yul\":12134:12470   */\n    tag_243:\n        /* \"#utility.yul\":12201:12239   */\n      tag_244\n        /* \"#utility.yul\":12233:12238   */\n      dup6\n        /* \"#utility.yul\":12201:12239   */\n      tag_100\n      jump\t// in\n    tag_244:\n        /* \"#utility.yul\":12261:12262   */\n      0x00\n        /* \"#utility.yul\":12275:12429   */\n    tag_245:\n        /* \"#utility.yul\":12289:12295   */\n      dup4\n        /* \"#utility.yul\":12286:12287   */\n      dup2\n        /* \"#utility.yul\":12283:12296   */\n      lt\n        /* \"#utility.yul\":12275:12429   */\n      iszero\n      tag_247\n      jumpi\n        /* \"#utility.yul\":12363:12370   */\n      dup2\n        /* \"#utility.yul\":12357:12371   */\n      sload\n        /* \"#utility.yul\":12353:12354   */\n      dup2\n        /* \"#utility.yul\":12348:12351   */\n      dup10\n        /* \"#utility.yul\":12344:12355   */\n      add\n        /* \"#utility.yul\":12337:12372   */\n      mstore\n        /* \"#utility.yul\":12413:12414   */\n      0x01\n        /* \"#utility.yul\":12404:12411   */\n      dup3\n        /* \"#utility.yul\":12400:12415   */\n      add\n        /* \"#utility.yul\":12389:12415   */\n      swap2\n      pop\n        /* \"#utility.yul\":12311:12315   */\n      0x20\n        /* \"#utility.yul\":12308:12309   */\n      dup2\n        /* \"#utility.yul\":12304:12316   */\n      add\n        /* \"#utility.yul\":12299:12316   */\n      swap1\n      pop\n        /* \"#utility.yul\":12275:12429   */\n      jump(tag_245)\n    tag_247:\n        /* \"#utility.yul\":12458:12459   */\n      dup1\n        /* \"#utility.yul\":12453:12456   */\n      dup9\n        /* \"#utility.yul\":12449:12460   */\n      add\n        /* \"#utility.yul\":12442:12460   */\n      swap6\n      pop\n        /* \"#utility.yul\":12141:12470   */\n      pop\n      pop\n        /* \"#utility.yul\":11928:12470   */\n    tag_241:\n      pop\n        /* \"#utility.yul\":11734:12476   */\n      pop\n      pop\n        /* \"#utility.yul\":11645:12476   */\n      swap3\n      swap2\n      pop\n      pop\n      jump\t// out\n        /* \"#utility.yul\":12482:12899   */\n    tag_47:\n        /* \"#utility.yul\":12620:12624   */\n      0x00\n        /* \"#utility.yul\":12658:12660   */\n      0x40\n        /* \"#utility.yul\":12647:12656   */\n      dup3\n        /* \"#utility.yul\":12643:12661   */\n      add\n        /* \"#utility.yul\":12635:12661   */\n      swap1\n      pop\n        /* \"#utility.yul\":12707:12716   */\n      dup2\n        /* \"#utility.yul\":12701:12705   */\n      dup2\n        /* \"#utility.yul\":12697:12717   */\n      sub\n        /* \"#utility.yul\":12693:12694   */\n      0x00\n        /* \"#utility.yul\":12682:12691   */\n      dup4\n        /* \"#utility.yul\":12678:12695   */\n      add\n        /* \"#utility.yul\":12671:12718   */\n      mstore\n        /* \"#utility.yul\":12735:12810   */\n      tag_249\n        /* \"#utility.yul\":12805:12809   */\n      dup2\n        /* \"#utility.yul\":12796:12802   */\n      dup6\n        /* \"#utility.yul\":12735:12810   */\n      tag_101\n      jump\t// in\n    tag_249:\n        /* \"#utility.yul\":12727:12810   */\n      swap1\n      pop\n        /* \"#utility.yul\":12820:12892   */\n      tag_250\n        /* \"#utility.yul\":12888:12890   */\n      0x20\n        /* \"#utility.yul\":12877:12886   */\n      dup4\n        /* \"#utility.yul\":12873:12891   */\n      add\n        /* \"#utility.yul\":12864:12870   */\n      dup5\n        /* \"#utility.yul\":12820:12892   */\n      tag_76\n      jump\t// in\n    tag_250:\n        /* \"#utility.yul\":12482:12899   */\n      swap4\n      swap3\n      pop\n      pop\n      pop\n      jump\t// out\n        /* \"#utility.yul\":12905:13130   */\n    tag_102:\n        /* \"#utility.yul\":13045:13079   */\n      0x546f6b656e73207265717569726564206d757374206265206772656174657220\n        /* \"#utility.yul\":13041:13042   */\n      0x00\n        /* \"#utility.yul\":13033:13039   */\n      dup3\n        /* \"#utility.yul\":13029:13043   */\n      add\n        /* \"#utility.yul\":13022:13080   */\n      mstore\n        /* \"#utility.yul\":13114:13122   */\n      0x7468616e20300000000000000000000000000000000000000000000000000000\n        /* \"#utility.yul\":13109:13111   */\n      0x20\n        /* \"#utility.yul\":13101:13107   */\n      dup3\n        /* \"#utility.yul\":13097:13112   */\n      add\n        /* \"#utility.yul\":13090:13123   */\n      mstore\n        /* \"#utility.yul\":12905:13130   */\n      pop\n      jump\t// out\n        /* \"#utility.yul\":13136:13502   */\n    tag_103:\n        /* \"#utility.yul\":13278:13281   */\n      0x00\n        /* \"#utility.yul\":13299:13366   */\n      tag_253\n        /* \"#utility.yul\":13363:13365   */\n      0x26\n        /* \"#utility.yul\":13358:13361   */\n      dup4\n        /* \"#utility.yul\":13299:13366   */\n      tag_71\n      jump\t// in\n    tag_253:\n        /* \"#utility.yul\":13292:13366   */\n      swap2\n      pop\n        /* \"#utility.yul\":13375:13468   */\n      tag_254\n        /* \"#utility.yul\":13464:13467   */\n      dup3\n        /* \"#utility.yul\":13375:13468   */\n      tag_102\n      jump\t// in\n    tag_254:\n        /* \"#utility.yul\":13493:13495   */\n      0x40\n        /* \"#utility.yul\":13488:13491   */\n      dup3\n        /* \"#utility.yul\":13484:13496   */\n      add\n        /* \"#utility.yul\":13477:13496   */\n      swap1\n      pop\n        /* \"#utility.yul\":13136:13502   */\n      swap2\n      swap1\n      pop\n      jump\t// out\n        /* \"#utility.yul\":13508:13927   */\n    tag_57:\n        /* \"#utility.yul\":13674:13678   */\n      0x00\n        /* \"#utility.yul\":13712:13714   */\n      0x20\n        /* \"#utility.yul\":13701:13710   */\n      dup3\n        /* \"#utility.yul\":13697:13715   */\n      add\n        /* \"#utility.yul\":13689:13715   */\n      swap1\n      pop\n        /* \"#utility.yul\":13761:13770   */\n      dup2\n        /* \"#utility.yul\":13755:13759   */\n      dup2\n        /* \"#utility.yul\":13751:13771   */\n      sub\n        /* \"#utility.yul\":13747:13748   */\n      0x00\n        /* \"#utility.yul\":13736:13745   */\n      dup4\n        /* \"#utility.yul\":13732:13749   */\n      add\n        /* \"#utility.yul\":13725:13772   */\n      mstore\n        /* \"#utility.yul\":13789:13920   */\n      tag_256\n        /* \"#utility.yul\":13915:13919   */\n      dup2\n        /* \"#utility.yul\":13789:13920   */\n      tag_103\n      jump\t// in\n    tag_256:\n        /* \"#utility.yul\":13781:13920   */\n      swap1\n      pop\n        /* \"#utility.yul\":13508:13927   */\n      swap2\n      swap1\n      pop\n      jump\t// out\n        /* \"#utility.yul\":13933:14113   */\n    tag_104:\n        /* \"#utility.yul\":13981:14058   */\n      0x4e487b7100000000000000000000000000000000000000000000000000000000\n        /* \"#utility.yul\":13978:13979   */\n      0x00\n        /* \"#utility.yul\":13971:14059   */\n      mstore\n        /* \"#utility.yul\":14078:14082   */\n      0x41\n        /* \"#utility.yul\":14075:14076   */\n      0x04\n        /* \"#utility.yul\":14068:14083   */\n      mstore\n        /* \"#utility.yul\":14102:14106   */\n      0x24\n        /* \"#utility.yul\":14099:14100   */\n      0x00\n        /* \"#utility.yul\":14092:14107   */\n      revert\n        /* \"#utility.yul\":14119:14212   */\n    tag_105:\n        /* \"#utility.yul\":14156:14162   */\n      0x00\n        /* \"#utility.yul\":14203:14205   */\n      0x20\n        /* \"#utility.yul\":14198:14200   */\n      0x1f\n        /* \"#utility.yul\":14191:14196   */\n      dup4\n        /* \"#utility.yul\":14187:14201   */\n      add\n        /* \"#utility.yul\":14183:14206   */\n      div\n        /* \"#utility.yul\":14173:14206   */\n      swap1\n      pop\n        /* \"#utility.yul\":14119:14212   */\n      swap2\n      swap1\n      pop\n      jump\t// out\n        /* \"#utility.yul\":14218:14325   */\n    tag_106:\n        /* \"#utility.yul\":14262:14270   */\n      0x00\n        /* \"#utility.yul\":14312:14317   */\n      dup3\n        /* \"#utility.yul\":14306:14310   */\n      dup3\n        /* \"#utility.yul\":14302:14318   */\n      shl\n        /* \"#utility.yul\":14281:14318   */\n      swap1\n      pop\n        /* \"#utility.yul\":14218:14325   */\n      swap3\n      swap2\n      pop\n      pop\n      jump\t// out\n        /* \"#utility.yul\":14331:14724   */\n    tag_107:\n        /* \"#utility.yul\":14400:14406   */\n      0x00\n        /* \"#utility.yul\":14450:14451   */\n      0x08\n        /* \"#utility.yul\":14438:14448   */\n      dup4\n        /* \"#utility.yul\":14434:14452   */\n      mul\n        /* \"#utility.yul\":14473:14570   */\n      tag_261\n        /* \"#utility.yul\":14503:14569   */\n      0xffffffffffffffffffffffffffffffffffffffffffffffffffffffffffffffff\n        /* \"#utility.yul\":14492:14501   */\n      dup3\n        /* \"#utility.yul\":14473:14570   */\n      tag_106\n      jump\t// in\n    tag_261:\n        /* \"#utility.yul\":14591:14630   */\n      tag_262\n        /* \"#utility.yul\":14621:14629   */\n      dup7\n        /* \"#utility.yul\":14610:14619   */\n      dup4\n        /* \"#utility.yul\":14591:14630   */\n      tag_106\n      jump\t// in\n    tag_262:\n        /* \"#utility.yul\":14579:14630   */\n      swap6\n      pop\n        /* \"#utility.yul\":14663:14667   */\n      dup1\n        /* \"#utility.yul\":14659:14668   */\n      not\n        /* \"#utility.yul\":14652:14657   */\n      dup5\n        /* \"#utility.yul\":14648:14669   */\n      and\n        /* \"#utility.yul\":14639:14669   */\n      swap4\n      pop\n        /* \"#utility.yul\":14712:14716   */\n      dup1\n        /* \"#utility.yul\":14702:14710   */\n      dup7\n        /* \"#utility.yul\":14698:14717   */\n      and\n        /* \"#utility.yul\":14691:14696   */\n      dup5\n        /* \"#utility.yul\":14688:14718   */\n      or\n        /* \"#utility.yul\":14678:14718   */\n      swap3\n      pop\n        /* \"#utility.yul\":14407:14724   */\n      pop\n      pop\n        /* \"#utility.yul\":14331:14724   */\n      swap4\n      swap3\n      pop\n      pop\n      pop\n      jump\t// out\n        /* \"#utility.yul\":14730:14872   */\n    tag_108:\n        /* \"#utility.yul\":14780:14789   */\n      0x00\n        /* \"#utility.yul\":14813:14866   */\n      tag_264\n        /* \"#utility.yul\":14831:14865   */\n      tag_265\n        /* \"#utility.yul\":14840:14864   */\n      tag_266\n        /* \"#utility.yul\":14858:14863   */\n      dup5\n        /* \"#utility.yul\":14840:14864   */\n      tag_75\n      jump\t// in\n    tag_266:\n        /* \"#utility.yul\":14831:14865   */\n      tag_85\n      jump\t// in\n    tag_265:\n        /* \"#utility.yul\":14813:14866   */\n      tag_75\n      jump\t// in\n    tag_264:\n        /* \"#utility.yul\":14800:14866   */\n      swap1\n      pop\n        /* \"#utility.yul\":14730:14872   */\n      swap2\n      swap1\n      pop\n      jump\t// out\n        /* \"#utility.yul\":14878:14953   */\n    tag_109:\n        /* \"#utility.yul\":14921:14924   */\n      0x00\n        /* \"#utility.yul\":14942:14947   */\n      dup2\n        /* \"#utility.yul\":14935:14947   */\n      swap1\n      pop\n        /* \"#utility.yul\":14878:14953   */\n      swap2\n      swap1\n      pop\n      jump\t// out\n        /* \"#utility.yul\":14959:15228   */\n    tag_110:\n        /* \"#utility.yul\":15069:15108   */\n      tag_269\n        /* \"#utility.yul\":15100:15107   */\n      dup4\n        /* \"#utility.yul\":15069:15108   */\n      tag_108\n      jump\t// in\n    tag_269:\n        /* \"#utility.yul\":15130:15221   */\n      tag_270\n        /* \"#utility.yul\":15179:15220   */\n      tag_271\n        /* \"#utility.yul\":15203:15219   */\n      dup3\n        /* \"#utility.yul\":15179:15220   */\n      tag_109\n      jump\t// in\n    tag_271:\n        /* \"#utility.yul\":15171:15177   */\n      dup5\n        /* \"#utility.yul\":15164:15168   */\n      dup5\n        /* \"#utility.yul\":15158:15169   */\n      sload\n        /* \"#utility.yul\":15130:15221   */\n      tag_107\n      jump\t// in\n    tag_270:\n        /* \"#utility.yul\":15124:15128   */\n      dup3\n        /* \"#utility.yul\":15117:15222   */\n      sstore\n        /* \"#utility.yul\":15035:15228   */\n      pop\n        /* \"#utility.yul\":14959:15228   */\n      pop\n      pop\n      pop\n      jump\t// out\n        /* \"#utility.yul\":15234:15307   */\n    tag_111:\n        /* \"#utility.yul\":15279:15282   */\n      0x00\n        /* \"#utility.yul\":15234:15307   */\n      swap1\n      jump\t// out\n        /* \"#utility.yul\":15313:15502   */\n    tag_112:\n        /* \"#utility.yul\":15390:15422   */\n      tag_274\n      tag_111\n      jump\t// in\n    tag_274:\n        /* \"#utility.yul\":15431:15496   */\n      tag_275\n        /* \"#utility.yul\":15489:15495   */\n      dup2\n        /* \"#utility.yul\":15481:15487   */\n      dup5\n        /* \"#utility.yul\":15475:15479   */\n      dup5\n        /* \"#utility.yul\":15431:15496   */\n      tag_110\n      jump\t// in\n    tag_275:\n        /* \"#utility.yul\":15366:15502   */\n      pop\n        /* \"#utility.yul\":15313:15502   */\n      pop\n      pop\n      jump\t// out\n        /* \"#utility.yul\":15508:15694   */\n    tag_113:\n        /* \"#utility.yul\":15568:15688   */\n    tag_277:\n        /* \"#utility.yul\":15585:15588   */\n      dup2\n        /* \"#utility.yul\":15578:15583   */\n      dup2\n        /* \"#utility.yul\":15575:15589   */\n      lt\n        /* \"#utility.yul\":15568:15688   */\n      iszero\n      tag_279\n      jumpi\n        /* \"#utility.yul\":15639:15678   */\n      tag_280\n        /* \"#utility.yul\":15676:15677   */\n      0x00\n        /* \"#utility.yul\":15669:15674   */\n      dup3\n        /* \"#utility.yul\":15639:15678   */\n      tag_112\n      jump\t// in\n    tag_280:\n        /* \"#utility.yul\":15612:15613   */\n      0x01\n        /* \"#utility.yul\":15605:15610   */\n      dup2\n        /* \"#utility.yul\":15601:15614   */\n      add\n        /* \"#utility.yul\":15592:15614   */\n      swap1\n      pop\n        /* \"#utility.yul\":15568:15688   */\n      jump(tag_277)\n    tag_279:\n        /* \"#utility.yul\":15508:15694   */\n      pop\n      pop\n      jump\t// out\n        /* \"#utility.yul\":15700:16243   */\n    tag_114:\n        /* \"#utility.yul\":15801:15803   */\n      0x1f\n        /* \"#utility.yul\":15796:15799   */\n      dup3\n        /* \"#utility.yul\":15793:15804   */\n      gt\n        /* \"#utility.yul\":15790:16236   */\n      iszero\n      tag_282\n      jumpi\n        /* \"#utility.yul\":15835:15873   */\n      tag_283\n        /* \"#utility.yul\":15867:15872   */\n      dup2\n        /* \"#utility.yul\":15835:15873   */\n      tag_100\n      jump\t// in\n    tag_283:\n        /* \"#utility.yul\":15919:15948   */\n      tag_284\n        /* \"#utility.yul\":15937:15947   */\n      dup5\n        /* \"#utility.yul\":15919:15948   */\n      tag_105\n      jump\t// in\n    tag_284:\n        /* \"#utility.yul\":15909:15917   */\n      dup2\n        /* \"#utility.yul\":15905:15949   */\n      add\n        /* \"#utility.yul\":16102:16104   */\n      0x20\n        /* \"#utility.yul\":16090:16100   */\n      dup6\n        /* \"#utility.yul\":16087:16105   */\n      lt\n        /* \"#utility.yul\":16084:16133   */\n      iszero\n      tag_285\n      jumpi\n        /* \"#utility.yul\":16123:16131   */\n      dup2\n        /* \"#utility.yul\":16108:16131   */\n      swap1\n      pop\n        /* \"#utility.yul\":16084:16133   */\n    tag_285:\n        /* \"#utility.yul\":16146:16226   */\n      tag_286\n        /* \"#utility.yul\":16202:16224   */\n      tag_287\n        /* \"#utility.yul\":16220:16223   */\n      dup6\n        /* \"#utility.yul\":16202:16224   */\n      tag_105\n      jump\t// in\n    tag_287:\n        /* \"#utility.yul\":16192:16200   */\n      dup4\n        /* \"#utility.yul\":16188:16225   */\n      add\n        /* \"#utility.yul\":16175:16186   */\n      dup3\n        /* \"#utility.yul\":16146:16226   */\n      tag_113\n      jump\t// in\n    tag_286:\n        /* \"#utility.yul\":15805:16236   */\n      pop\n      pop\n        /* \"#utility.yul\":15790:16236   */\n    tag_282:\n        /* \"#utility.yul\":15700:16243   */\n      pop\n      pop\n      pop\n      jump\t// out\n        /* \"#utility.yul\":16249:16366   */\n    tag_115:\n        /* \"#utility.yul\":16303:16311   */\n      0x00\n        /* \"#utility.yul\":16353:16358   */\n      dup3\n        /* \"#utility.yul\":16347:16351   */\n      dup3\n        /* \"#utility.yul\":16343:16359   */\n      shr\n        /* \"#utility.yul\":16322:16359   */\n      swap1\n      pop\n        /* \"#utility.yul\":16249:16366   */\n      swap3\n      swap2\n      pop\n      pop\n      jump\t// out\n        /* \"#utility.yul\":16372:16541   */\n    tag_116:\n        /* \"#utility.yul\":16416:16422   */\n      0x00\n        /* \"#utility.yul\":16449:16500   */\n      tag_290\n        /* \"#utility.yul\":16497:16498   */\n      0x00\n        /* \"#utility.yul\":16493:16499   */\n      not\n        /* \"#utility.yul\":16485:16490   */\n      dup5\n        /* \"#utility.yul\":16482:16483   */\n      0x08\n        /* \"#utility.yul\":16478:16491   */\n      mul\n        /* \"#utility.yul\":16449:16500   */\n      tag_115\n      jump\t// in\n    tag_290:\n        /* \"#utility.yul\":16445:16501   */\n      not\n        /* \"#utility.yul\":16530:16534   */\n      dup1\n        /* \"#utility.yul\":16524:16528   */\n      dup4\n        /* \"#utility.yul\":16520:16535   */\n      and\n        /* \"#utility.yul\":16510:16535   */\n      swap2\n      pop\n        /* \"#utility.yul\":16423:16541   */\n      pop\n        /* \"#utility.yul\":16372:16541   */\n      swap3\n      swap2\n      pop\n      pop\n      jump\t// out\n        /* \"#utility.yul\":16546:16841   */\n    tag_117:\n        /* \"#utility.yul\":16622:16626   */\n      0x00\n        /* \"#utility.yul\":16768:16797   */\n      tag_292\n        /* \"#utility.yul\":16793:16796   */\n      dup4\n        /* \"#utility.yul\":16787:16791   */\n      dup4\n        /* \"#utility.yul\":16768:16797   */\n      tag_116\n      jump\t// in\n    tag_292:\n        /* \"#utility.yul\":16760:16797   */\n      swap2\n      pop\n        /* \"#utility.yul\":16830:16833   */\n      dup3\n        /* \"#utility.yul\":16827:16828   */\n      0x02\n        /* \"#utility.yul\":16823:16834   */\n      mul\n        /* \"#utility.yul\":16817:16821   */\n      dup3\n        /* \"#utility.yul\":16814:16835   */\n      or\n        /* \"#utility.yul\":16806:16835   */\n      swap1\n      pop\n        /* \"#utility.yul\":16546:16841   */\n      swap3\n      swap2\n      pop\n      pop\n      jump\t// out\n        /* \"#utility.yul\":16846:18241   */\n    tag_59:\n        /* \"#utility.yul\":16963:17000   */\n      tag_294\n        /* \"#utility.yul\":16996:16999   */\n      dup3\n        /* \"#utility.yul\":16963:17000   */\n      tag_70\n      jump\t// in\n    tag_294:\n        /* \"#utility.yul\":17065:17083   */\n      0xffffffffffffffff\n        /* \"#utility.yul\":17057:17063   */\n      dup2\n        /* \"#utility.yul\":17054:17084   */\n      gt\n        /* \"#utility.yul\":17051:17107   */\n      iszero\n      tag_295\n      jumpi\n        /* \"#utility.yul\":17087:17105   */\n      tag_296\n      tag_104\n      jump\t// in\n    tag_296:\n        /* \"#utility.yul\":17051:17107   */\n    tag_295:\n        /* \"#utility.yul\":17131:17169   */\n      tag_297\n        /* \"#utility.yul\":17163:17167   */\n      dup3\n        /* \"#utility.yul\":17157:17168   */\n      sload\n        /* \"#utility.yul\":17131:17169   */\n      tag_49\n      jump\t// in\n    tag_297:\n        /* \"#utility.yul\":17216:17283   */\n      tag_298\n        /* \"#utility.yul\":17276:17282   */\n      dup3\n        /* \"#utility.yul\":17268:17274   */\n      dup3\n        /* \"#utility.yul\":17262:17266   */\n      dup6\n        /* \"#utility.yul\":17216:17283   */\n      tag_114\n      jump\t// in\n    tag_298:\n        /* \"#utility.yul\":17310:17311   */\n      0x00\n        /* \"#utility.yul\":17334:17338   */\n      0x20\n        /* \"#utility.yul\":17321:17338   */\n      swap1\n      pop\n        /* \"#utility.yul\":17366:17368   */\n      0x1f\n        /* \"#utility.yul\":17358:17364   */\n      dup4\n        /* \"#utility.yul\":17355:17369   */\n      gt\n        /* \"#utility.yul\":17383:17384   */\n      0x01\n        /* \"#utility.yul\":17378:17996   */\n      dup2\n      eq\n      tag_300\n      jumpi\n        /* \"#utility.yul\":18040:18041   */\n      0x00\n        /* \"#utility.yul\":18057:18063   */\n      dup5\n        /* \"#utility.yul\":18054:18131   */\n      iszero\n      tag_301\n      jumpi\n        /* \"#utility.yul\":18106:18115   */\n      dup3\n        /* \"#utility.yul\":18101:18104   */\n      dup8\n        /* \"#utility.yul\":18097:18116   */\n      add\n        /* \"#utility.yul\":18091:18117   */\n      mload\n        /* \"#utility.yul\":18082:18117   */\n      swap1\n      pop\n        /* \"#utility.yul\":18054:18131   */\n    tag_301:\n        /* \"#utility.yul\":18157:18224   */\n      tag_302\n        /* \"#utility.yul\":18217:18223   */\n      dup6\n        /* \"#utility.yul\":18210:18215   */\n      dup3\n        /* \"#utility.yul\":18157:18224   */\n      tag_117\n      jump\t// in\n    tag_302:\n        /* \"#utility.yul\":18151:18155   */\n      dup7\n        /* \"#utility.yul\":18144:18225   */\n      sstore\n        /* \"#utility.yul\":18013:18235   */\n      pop\n        /* \"#utility.yul\":17348:18235   */\n      jump(tag_299)\n        /* \"#utility.yul\":17378:17996   */\n    tag_300:\n        /* \"#utility.yul\":17430:17434   */\n      0x1f\n        /* \"#utility.yul\":17426:17435   */\n      not\n        /* \"#utility.yul\":17418:17424   */\n      dup5\n        /* \"#utility.yul\":17414:17436   */\n      and\n        /* \"#utility.yul\":17464:17501   */\n      tag_303\n        /* \"#utility.yul\":17496:17500   */\n      dup7\n        /* \"#utility.yul\":17464:17501   */\n      tag_100\n      jump\t// in\n    tag_303:\n        /* \"#utility.yul\":17523:17524   */\n      0x00\n        /* \"#utility.yul\":17537:17745   */\n    tag_304:\n        /* \"#utility.yul\":17551:17558   */\n      dup3\n        /* \"#utility.yul\":17548:17549   */\n      dup2\n        /* \"#utility.yul\":17545:17559   */\n      lt\n        /* \"#utility.yul\":17537:17745   */\n      iszero\n      tag_306\n      jumpi\n        /* \"#utility.yul\":17630:17639   */\n      dup5\n        /* \"#utility.yul\":17625:17628   */\n      dup10\n        /* \"#utility.yul\":17621:17640   */\n      add\n        /* \"#utility.yul\":17615:17641   */\n      mload\n        /* \"#utility.yul\":17607:17613   */\n      dup3\n        /* \"#utility.yul\":17600:17642   */\n      sstore\n        /* \"#utility.yul\":17681:17682   */\n      0x01\n        /* \"#utility.yul\":17673:17679   */\n      dup3\n        /* \"#utility.yul\":17669:17683   */\n      add\n        /* \"#utility.yul\":17659:17683   */\n      swap2\n      pop\n        /* \"#utility.yul\":17728:17730   */\n      0x20\n        /* \"#utility.yul\":17717:17726   */\n      dup6\n        /* \"#utility.yul\":17713:17731   */\n      add\n        /* \"#utility.yul\":17700:17731   */\n      swap5\n      pop\n        /* \"#utility.yul\":17574:17578   */\n      0x20\n        /* \"#utility.yul\":17571:17572   */\n      dup2\n        /* \"#utility.yul\":17567:17579   */\n      add\n        /* \"#utility.yul\":17562:17579   */\n      swap1\n      pop\n        /* \"#utility.yul\":17537:17745   */\n      jump(tag_304)\n    tag_306:\n        /* \"#utility.yul\":17773:17779   */\n      dup7\n        /* \"#utility.yul\":17764:17771   */\n      dup4\n        /* \"#utility.yul\":17761:17780   */\n      lt\n        /* \"#utility.yul\":17758:17937   */\n      iszero\n      tag_307\n      jumpi\n        /* \"#utility.yul\":17831:17840   */\n      dup5\n        /* \"#utility.yul\":17826:17829   */\n      dup10\n        /* \"#utility.yul\":17822:17841   */\n      add\n        /* \"#utility.yul\":17816:17842   */\n      mload\n        /* \"#utility.yul\":17874:17922   */\n      tag_308\n        /* \"#utility.yul\":17916:17920   */\n      0x1f\n        /* \"#utility.yul\":17908:17914   */\n      dup10\n        /* \"#utility.yul\":17904:17921   */\n      and\n        /* \"#utility.yul\":17893:17902   */\n      dup3\n        /* \"#utility.yul\":17874:17922   */\n      tag_116\n      jump\t// in\n    tag_308:\n        /* \"#utility.yul\":17866:17872   */\n      dup4\n        /* \"#utility.yul\":17859:17923   */\n      sstore\n        /* \"#utility.yul\":17781:17937   */\n      pop\n        /* \"#utility.yul\":17758:17937   */\n    tag_307:\n        /* \"#utility.yul\":17983:17984   */\n      0x01\n        /* \"#utility.yul\":17979:17980   */\n      0x02\n        /* \"#utility.yul\":17971:17977   */\n      dup9\n        /* \"#utility.yul\":17967:17981   */\n      mul\n        /* \"#utility.yul\":17963:17985   */\n      add\n        /* \"#utility.yul\":17957:17961   */\n      dup9\n        /* \"#utility.yul\":17950:17986   */\n      sstore\n        /* \"#utility.yul\":17385:17996   */\n      pop\n      pop\n      pop\n        /* \"#utility.yul\":17348:18235   */\n    tag_299:\n      pop\n        /* \"#utility.yul\":16938:18241   */\n      pop\n      pop\n      pop\n        /* \"#utility.yul\":16846:18241   */\n      pop\n      pop\n      jump\t// out\n        /* \"#utility.yul\":18247:18395   */\n    tag_118:\n        /* \"#utility.yul\":18345:18351   */\n      dup3\n        /* \"#utility.yul\":18340:18343   */\n      dup2\n        /* \"#utility.yul\":18335:18338   */\n      dup4\n        /* \"#utility.yul\":18322:18352   */\n      calldatacopy\n        /* \"#utility.yul\":18386:18387   */\n      0x00\n        /* \"#utility.yul\":18377:18383   */\n      dup4\n        /* \"#utility.yul\":18372:18375   */\n      dup4\n        /* \"#utility.yul\":18368:18384   */\n      add\n        /* \"#utility.yul\":18361:18388   */\n      mstore\n        /* \"#utility.yul\":18247:18395   */\n      pop\n      pop\n      pop\n      jump\t// out\n        /* \"#utility.yul\":18425:18742   */\n    tag_119:\n        /* \"#utility.yul\":18523:18526   */\n      0x00\n        /* \"#utility.yul\":18544:18615   */\n      tag_311\n        /* \"#utility.yul\":18608:18614   */\n      dup4\n        /* \"#utility.yul\":18603:18606   */\n      dup6\n        /* \"#utility.yul\":18544:18615   */\n      tag_71\n      jump\t// in\n    tag_311:\n        /* \"#utility.yul\":18537:18615   */\n      swap4\n      pop\n        /* \"#utility.yul\":18625:18681   */\n      tag_312\n        /* \"#utility.yul\":18674:18680   */\n      dup4\n        /* \"#utility.yul\":18669:18672   */\n      dup6\n        /* \"#utility.yul\":18662:18667   */\n      dup5\n        /* \"#utility.yul\":18625:18681   */\n      tag_118\n      jump\t// in\n    tag_312:\n        /* \"#utility.yul\":18706:18735   */\n      tag_313\n        /* \"#utility.yul\":18728:18734   */\n      dup4\n        /* \"#utility.yul\":18706:18735   */\n      tag_73\n      jump\t// in\n    tag_313:\n        /* \"#utility.yul\":18701:18704   */\n      dup5\n        /* \"#utility.yul\":18697:18736   */\n      add\n        /* \"#utility.yul\":18690:18736   */\n      swap1\n      pop\n        /* \"#utility.yul\":18425:18742   */\n      swap4\n      swap3\n      pop\n      pop\n      pop\n      jump\t// out\n        /* \"#utility.yul\":18748:19191   */\n    tag_61:\n        /* \"#utility.yul\":18899:18903   */\n      0x00\n        /* \"#utility.yul\":18937:18939   */\n      0x40\n        /* \"#utility.yul\":18926:18935   */\n      dup3\n        /* \"#utility.yul\":18922:18940   */\n      add\n        /* \"#utility.yul\":18914:18940   */\n      swap1\n      pop\n        /* \"#utility.yul\":18986:18995   */\n      dup2\n        /* \"#utility.yul\":18980:18984   */\n      dup2\n        /* \"#utility.yul\":18976:18996   */\n      sub\n        /* \"#utility.yul\":18972:18973   */\n      0x00\n        /* \"#utility.yul\":18961:18970   */\n      dup4\n        /* \"#utility.yul\":18957:18974   */\n      add\n        /* \"#utility.yul\":18950:18997   */\n      mstore\n        /* \"#utility.yul\":19014:19102   */\n      tag_315\n        /* \"#utility.yul\":19097:19101   */\n      dup2\n        /* \"#utility.yul\":19088:19094   */\n      dup6\n        /* \"#utility.yul\":19080:19086   */\n      dup8\n        /* \"#utility.yul\":19014:19102   */\n      tag_119\n      jump\t// in\n    tag_315:\n        /* \"#utility.yul\":19006:19102   */\n      swap1\n      pop\n        /* \"#utility.yul\":19112:19184   */\n      tag_316\n        /* \"#utility.yul\":19180:19182   */\n      0x20\n        /* \"#utility.yul\":19169:19178   */\n      dup4\n        /* \"#utility.yul\":19165:19183   */\n      add\n        /* \"#utility.yul\":19156:19162   */\n      dup5\n        /* \"#utility.yul\":19112:19184   */\n      tag_76\n      jump\t// in\n    tag_316:\n        /* \"#utility.yul\":18748:19191   */\n      swap5\n      swap4\n      pop\n      pop\n      pop\n      pop\n      jump\t// out\n\n    auxdata: 0xa2646970667358221220f242af2601d56ce34d5504dd5cb60309099ac5169cad4d8a248e201b23d6760b64736f6c634300081a0033\n}\n",
				"bytecode": {
					"linkReferences": {},
					"object": "608060405234801561000f575f80fd5b506040516111dd3803806111dd833981810160405281019061003191906100d4565b805f806101000a81548173ffffffffffffffffffffffffffffffffffffffff021916908373ffffffffffffffffffffffffffffffffffffffff160217905550506100ff565b5f80fd5b5f73ffffffffffffffffffffffffffffffffffffffff82169050919050565b5f6100a38261007a565b9050919050565b6100b381610099565b81146100bd575f80fd5b50565b5f815190506100ce816100aa565b92915050565b5f602082840312156100e9576100e8610076565b5b5f6100f6848285016100c0565b91505092915050565b6110d18061010c5f395ff3fe608060405234801561000f575f80fd5b506004361061004a575f3560e01c806304bf57821461004e578063612c1c451461006a5780636bb62bff1461009d578063fc0c546a146100b9575b5f80fd5b610068600480360381019061006391906106f9565b6100d7565b005b610084600480360381019061007f91906106f9565b6103be565b60405161009494939291906107d5565b60405180910390f35b6100b760048036038101906100b291906108aa565b61049b565b005b6100c1610674565b6040516100ce9190610962565b60405180910390f35b5f60015f8373ffffffffffffffffffffffffffffffffffffffff1673ffffffffffffffffffffffffffffffffffffffff1681526020019081526020015f209050806003015f9054906101000a900460ff16610167576040517f08c379a000000000000000000000000000000000000000000000000000000000815260040161015e906109eb565b60405180910390fd5b5f8160020154116101ad576040517f08c379a00000000000000000000000000000000000000000000000000000000081526004016101a490610a79565b60405180910390fd5b5f805f9054906101000a900473ffffffffffffffffffffffffffffffffffffffff1673ffffffffffffffffffffffffffffffffffffffff166370a08231336040518263ffffffff1660e01b81526004016102079190610a97565b602060405180830381865afa158015610222573d5f803e3d5ffd5b505050506040513d601f19601f820116820180604052508101906102469190610ac4565b9050816002015481101561028f576040517f08c379a000000000000000000000000000000000000000000000000000000000815260040161028690610b5f565b60405180910390fd5b5f8054906101000a900473ffffffffffffffffffffffffffffffffffffffff1673ffffffffffffffffffffffffffffffffffffffff166323b872dd338585600201546040518463ffffffff1660e01b81526004016102ef93929190610b7d565b6020604051808303815f875af115801561030b573d5f803e3d5ffd5b505050506040513d601f19601f8201168201806040525081019061032f9190610bdc565b505f826003015f6101000a81548160ff0219169083151502179055508273ffffffffffffffffffffffffffffffffffffffff163373ffffffffffffffffffffffffffffffffffffffff167f08960a86f8e26ad8a380be6100fb39b40c086f647d48de2419f2279b39fb2d148460010185600201546040516103b1929190610cf7565b60405180910390a3505050565b6001602052805f5260405f205f91509050805f015f9054906101000a900473ffffffffffffffffffffffffffffffffffffffff169080600101805461040290610c34565b80601f016020809104026020016040519081016040528092919081815260200182805461042e90610c34565b80156104795780601f1061045057610100808354040283529160200191610479565b820191905f5260205f20905b81548152906001019060200180831161045c57829003601f168201915b505050505090806002015490806003015f9054906101000a900460ff16905084565b5f81116104dd576040517f08c379a00000000000000000000000000000000000000000000000000000000081526004016104d490610d95565b60405180910390fd5b60405180608001604052803373ffffffffffffffffffffffffffffffffffffffff16815260200184848080601f0160208091040260200160405190810160405280939291908181526020018383808284375f81840152601f19601f8201169050808301925050505050505081526020018281526020016001151581525060015f3373ffffffffffffffffffffffffffffffffffffffff1673ffffffffffffffffffffffffffffffffffffffff1681526020019081526020015f205f820151815f015f6101000a81548173ffffffffffffffffffffffffffffffffffffffff021916908373ffffffffffffffffffffffffffffffffffffffff16021790555060208201518160010190816105f09190610f62565b50604082015181600201556060820151816003015f6101000a81548160ff0219169083151502179055509050503373ffffffffffffffffffffffffffffffffffffffff167f2eefc679ec465266993f0e88735d34245f8690611bb53ab1ee9933bb355df40e8484846040516106679392919061106b565b60405180910390a2505050565b5f8054906101000a900473ffffffffffffffffffffffffffffffffffffffff1681565b5f80fd5b5f80fd5b5f73ffffffffffffffffffffffffffffffffffffffff82169050919050565b5f6106c88261069f565b9050919050565b6106d8816106be565b81146106e2575f80fd5b50565b5f813590506106f3816106cf565b92915050565b5f6020828403121561070e5761070d610697565b5b5f61071b848285016106e5565b91505092915050565b61072d816106be565b82525050565b5f81519050919050565b5f82825260208201905092915050565b8281835e5f83830152505050565b5f601f19601f8301169050919050565b5f61077582610733565b61077f818561073d565b935061078f81856020860161074d565b6107988161075b565b840191505092915050565b5f819050919050565b6107b5816107a3565b82525050565b5f8115159050919050565b6107cf816107bb565b82525050565b5f6080820190506107e85f830187610724565b81810360208301526107fa818661076b565b905061080960408301856107ac565b61081660608301846107c6565b95945050505050565b5f80fd5b5f80fd5b5f80fd5b5f8083601f8401126108405761083f61081f565b5b8235905067ffffffffffffffff81111561085d5761085c610823565b5b60208301915083600182028301111561087957610878610827565b5b9250929050565b610889816107a3565b8114610893575f80fd5b50565b5f813590506108a481610880565b92915050565b5f805f604084860312156108c1576108c0610697565b5b5f84013567ffffffffffffffff8111156108de576108dd61069b565b5b6108ea8682870161082b565b935093505060206108fd86828701610896565b9150509250925092565b5f819050919050565b5f61092a6109256109208461069f565b610907565b61069f565b9050919050565b5f61093b82610910565b9050919050565b5f61094c82610931565b9050919050565b61095c81610942565b82525050565b5f6020820190506109755f830184610953565b92915050565b7f54686973207475746f72206973206e6f206c6f6e67657220617661696c61626c5f8201527f6500000000000000000000000000000000000000000000000000000000000000602082015250565b5f6109d560218361073d565b91506109e08261097b565b604082019050919050565b5f6020820190508181035f830152610a02816109c9565b9050919050565b7f54686973207475746f7220686173206e6f742073657420612076616c696420745f8201527f6f6b656e20707269636500000000000000000000000000000000000000000000602082015250565b5f610a63602a8361073d565b9150610a6e82610a09565b604082019050919050565b5f6020820190508181035f830152610a9081610a57565b9050919050565b5f602082019050610aaa5f830184610724565b92915050565b5f81519050610abe81610880565b92915050565b5f60208284031215610ad957610ad8610697565b5b5f610ae684828501610ab0565b91505092915050565b7f496e73756666696369656e7420746f6b656e7320746f20626f6f6b207475746f5f8201527f72696e672073657373696f6e0000000000000000000000000000000000000000602082015250565b5f610b49602c8361073d565b9150610b5482610aef565b604082019050919050565b5f6020820190508181035f830152610b7681610b3d565b9050919050565b5f606082019050610b905f830186610724565b610b9d6020830185610724565b610baa60408301846107ac565b949350505050565b610bbb816107bb565b8114610bc5575f80fd5b50565b5f81519050610bd681610bb2565b92915050565b5f60208284031215610bf157610bf0610697565b5b5f610bfe84828501610bc8565b91505092915050565b7f4e487b71000000000000000000000000000000000000000000000000000000005f52602260045260245ffd5b5f6002820490506001821680610c4b57607f821691505b602082108103610c5e57610c5d610c07565b5b50919050565b5f819050815f5260205f209050919050565b5f8154610c8281610c34565b610c8c818661073d565b9450600182165f8114610ca65760018114610cbc57610cee565b60ff198316865281151560200286019350610cee565b610cc585610c64565b5f5b83811015610ce657815481890152600182019150602081019050610cc7565b808801955050505b50505092915050565b5f6040820190508181035f830152610d0f8185610c76565b9050610d1e60208301846107ac565b9392505050565b7f546f6b656e73207265717569726564206d7573742062652067726561746572205f8201527f7468616e20300000000000000000000000000000000000000000000000000000602082015250565b5f610d7f60268361073d565b9150610d8a82610d25565b604082019050919050565b5f6020820190508181035f830152610dac81610d73565b9050919050565b7f4e487b71000000000000000000000000000000000000000000000000000000005f52604160045260245ffd5b5f6020601f8301049050919050565b5f82821b905092915050565b5f60088302610e2a7fffffffffffffffffffffffffffffffffffffffffffffffffffffffffffffffff82610def565b610e348683610def565b95508019841693508086168417925050509392505050565b5f610e66610e61610e5c846107a3565b610907565b6107a3565b9050919050565b5f819050919050565b610e7f83610e4c565b610e93610e8b82610e6d565b848454610dfb565b825550505050565b5f90565b610ea7610e9b565b610eb2818484610e76565b505050565b5b81811015610ed557610eca5f82610e9f565b600181019050610eb8565b5050565b601f821115610f1a57610eeb81610c64565b610ef484610de0565b81016020851015610f03578190505b610f17610f0f85610de0565b830182610eb7565b50505b505050565b5f82821c905092915050565b5f610f3a5f1984600802610f1f565b1980831691505092915050565b5f610f528383610f2b565b9150826002028217905092915050565b610f6b82610733565b67ffffffffffffffff811115610f8457610f83610db3565b5b610f8e8254610c34565b610f99828285610ed9565b5f60209050601f831160018114610fca575f8415610fb8578287015190505b610fc28582610f47565b865550611029565b601f198416610fd886610c64565b5f5b82811015610fff57848901518255600182019150602085019450602081019050610fda565b8683101561101c5784890151611018601f891682610f2b565b8355505b6001600288020188555050505b505050505050565b828183375f83830152505050565b5f61104a838561073d565b9350611057838584611031565b6110608361075b565b840190509392505050565b5f6040820190508181035f83015261108481858761103f565b905061109360208301846107ac565b94935050505056fea2646970667358221220f242af2601d56ce34d5504dd5cb60309099ac5169cad4d8a248e201b23d6760b64736f6c634300081a0033",
					"opcodes": "PUSH1 0x80 PUSH1 0x40 MSTORE CALLVALUE DUP1 ISZERO PUSH2 0xF JUMPI PUSH0 DUP1 REVERT JUMPDEST POP PUSH1 0x40 MLOAD PUSH2 0x11DD CODESIZE SUB DUP1 PUSH2 0x11DD DUP4 CODECOPY DUP2 DUP2 ADD PUSH1 0x40 MSTORE DUP2 ADD SWAP1 PUSH2 0x31 SWAP2 SWAP1 PUSH2 0xD4 JUMP JUMPDEST DUP1 PUSH0 DUP1 PUSH2 0x100 EXP DUP2 SLOAD DUP2 PUSH20 0xFFFFFFFFFFFFFFFFFFFFFFFFFFFFFFFFFFFFFFFF MUL NOT AND SWAP1 DUP4 PUSH20 0xFFFFFFFFFFFFFFFFFFFFFFFFFFFFFFFFFFFFFFFF AND MUL OR SWAP1 SSTORE POP POP PUSH2 0xFF JUMP JUMPDEST PUSH0 DUP1 REVERT JUMPDEST PUSH0 PUSH20 0xFFFFFFFFFFFFFFFFFFFFFFFFFFFFFFFFFFFFFFFF DUP3 AND SWAP1 POP SWAP2 SWAP1 POP JUMP JUMPDEST PUSH0 PUSH2 0xA3 DUP3 PUSH2 0x7A JUMP JUMPDEST SWAP1 POP SWAP2 SWAP1 POP JUMP JUMPDEST PUSH2 0xB3 DUP2 PUSH2 0x99 JUMP JUMPDEST DUP2 EQ PUSH2 0xBD JUMPI PUSH0 DUP1 REVERT JUMPDEST POP JUMP JUMPDEST PUSH0 DUP2 MLOAD SWAP1 POP PUSH2 0xCE DUP2 PUSH2 0xAA JUMP JUMPDEST SWAP3 SWAP2 POP POP JUMP JUMPDEST PUSH0 PUSH1 0x20 DUP3 DUP5 SUB SLT ISZERO PUSH2 0xE9 JUMPI PUSH2 0xE8 PUSH2 0x76 JUMP JUMPDEST JUMPDEST PUSH0 PUSH2 0xF6 DUP5 DUP3 DUP6 ADD PUSH2 0xC0 JUMP JUMPDEST SWAP2 POP POP SWAP3 SWAP2 POP POP JUMP JUMPDEST PUSH2 0x10D1 DUP1 PUSH2 0x10C PUSH0 CODECOPY PUSH0 RETURN INVALID PUSH1 0x80 PUSH1 0x40 MSTORE CALLVALUE DUP1 ISZERO PUSH2 0xF JUMPI PUSH0 DUP1 REVERT JUMPDEST POP PUSH1 0x4 CALLDATASIZE LT PUSH2 0x4A JUMPI PUSH0 CALLDATALOAD PUSH1 0xE0 SHR DUP1 PUSH4 0x4BF5782 EQ PUSH2 0x4E JUMPI DUP1 PUSH4 0x612C1C45 EQ PUSH2 0x6A JUMPI DUP1 PUSH4 0x6BB62BFF EQ PUSH2 0x9D JUMPI DUP1 PUSH4 0xFC0C546A EQ PUSH2 0xB9 JUMPI JUMPDEST PUSH0 DUP1 REVERT JUMPDEST PUSH2 0x68 PUSH1 0x4 DUP1 CALLDATASIZE SUB DUP2 ADD SWAP1 PUSH2 0x63 SWAP2 SWAP1 PUSH2 0x6F9 JUMP JUMPDEST PUSH2 0xD7 JUMP JUMPDEST STOP JUMPDEST PUSH2 0x84 PUSH1 0x4 DUP1 CALLDATASIZE SUB DUP2 ADD SWAP1 PUSH2 0x7F SWAP2 SWAP1 PUSH2 0x6F9 JUMP JUMPDEST PUSH2 0x3BE JUMP JUMPDEST PUSH1 0x40 MLOAD PUSH2 0x94 SWAP5 SWAP4 SWAP3 SWAP2 SWAP1 PUSH2 0x7D5 JUMP JUMPDEST PUSH1 0x40 MLOAD DUP1 SWAP2 SUB SWAP1 RETURN JUMPDEST PUSH2 0xB7 PUSH1 0x4 DUP1 CALLDATASIZE SUB DUP2 ADD SWAP1 PUSH2 0xB2 SWAP2 SWAP1 PUSH2 0x8AA JUMP JUMPDEST PUSH2 0x49B JUMP JUMPDEST STOP JUMPDEST PUSH2 0xC1 PUSH2 0x674 JUMP JUMPDEST PUSH1 0x40 MLOAD PUSH2 0xCE SWAP2 SWAP1 PUSH2 0x962 JUMP JUMPDEST PUSH1 0x40 MLOAD DUP1 SWAP2 SUB SWAP1 RETURN JUMPDEST PUSH0 PUSH1 0x1 PUSH0 DUP4 PUSH20 0xFFFFFFFFFFFFFFFFFFFFFFFFFFFFFFFFFFFFFFFF AND PUSH20 0xFFFFFFFFFFFFFFFFFFFFFFFFFFFFFFFFFFFFFFFF AND DUP2 MSTORE PUSH1 0x20 ADD SWAP1 DUP2 MSTORE PUSH1 0x20 ADD PUSH0 KECCAK256 SWAP1 POP DUP1 PUSH1 0x3 ADD PUSH0 SWAP1 SLOAD SWAP1 PUSH2 0x100 EXP SWAP1 DIV PUSH1 0xFF AND PUSH2 0x167 JUMPI PUSH1 0x40 MLOAD PUSH32 0x8C379A000000000000000000000000000000000000000000000000000000000 DUP2 MSTORE PUSH1 0x4 ADD PUSH2 0x15E SWAP1 PUSH2 0x9EB JUMP JUMPDEST PUSH1 0x40 MLOAD DUP1 SWAP2 SUB SWAP1 REVERT JUMPDEST PUSH0 DUP2 PUSH1 0x2 ADD SLOAD GT PUSH2 0x1AD JUMPI PUSH1 0x40 MLOAD PUSH32 0x8C379A000000000000000000000000000000000000000000000000000000000 DUP2 MSTORE PUSH1 0x4 ADD PUSH2 0x1A4 SWAP1 PUSH2 0xA79 JUMP JUMPDEST PUSH1 0x40 MLOAD DUP1 SWAP2 SUB SWAP1 REVERT JUMPDEST PUSH0 DUP1 PUSH0 SWAP1 SLOAD SWAP1 PUSH2 0x100 EXP SWAP1 DIV PUSH20 0xFFFFFFFFFFFFFFFFFFFFFFFFFFFFFFFFFFFFFFFF AND PUSH20 0xFFFFFFFFFFFFFFFFFFFFFFFFFFFFFFFFFFFFFFFF AND PUSH4 0x70A08231 CALLER PUSH1 0x40 MLOAD DUP3 PUSH4 0xFFFFFFFF AND PUSH1 0xE0 SHL DUP2 MSTORE PUSH1 0x4 ADD PUSH2 0x207 SWAP2 SWAP1 PUSH2 0xA97 JUMP JUMPDEST PUSH1 0x20 PUSH1 0x40 MLOAD DUP1 DUP4 SUB DUP2 DUP7 GAS STATICCALL ISZERO DUP1 ISZERO PUSH2 0x222 JUMPI RETURNDATASIZE PUSH0 DUP1 RETURNDATACOPY RETURNDATASIZE PUSH0 REVERT JUMPDEST POP POP POP POP PUSH1 0x40 MLOAD RETURNDATASIZE PUSH1 0x1F NOT PUSH1 0x1F DUP3 ADD AND DUP3 ADD DUP1 PUSH1 0x40 MSTORE POP DUP2 ADD SWAP1 PUSH2 0x246 SWAP2 SWAP1 PUSH2 0xAC4 JUMP JUMPDEST SWAP1 POP DUP2 PUSH1 0x2 ADD SLOAD DUP2 LT ISZERO PUSH2 0x28F JUMPI PUSH1 0x40 MLOAD PUSH32 0x8C379A000000000000000000000000000000000000000000000000000000000 DUP2 MSTORE PUSH1 0x4 ADD PUSH2 0x286 SWAP1 PUSH2 0xB5F JUMP JUMPDEST PUSH1 0x40 MLOAD DUP1 SWAP2 SUB SWAP1 REVERT JUMPDEST PUSH0 DUP1 SLOAD SWAP1 PUSH2 0x100 EXP SWAP1 DIV PUSH20 0xFFFFFFFFFFFFFFFFFFFFFFFFFFFFFFFFFFFFFFFF AND PUSH20 0xFFFFFFFFFFFFFFFFFFFFFFFFFFFFFFFFFFFFFFFF AND PUSH4 0x23B872DD CALLER DUP6 DUP6 PUSH1 0x2 ADD SLOAD PUSH1 0x40 MLOAD DUP5 PUSH4 0xFFFFFFFF AND PUSH1 0xE0 SHL DUP2 MSTORE PUSH1 0x4 ADD PUSH2 0x2EF SWAP4 SWAP3 SWAP2 SWAP1 PUSH2 0xB7D JUMP JUMPDEST PUSH1 0x20 PUSH1 0x40 MLOAD DUP1 DUP4 SUB DUP2 PUSH0 DUP8 GAS CALL ISZERO DUP1 ISZERO PUSH2 0x30B JUMPI RETURNDATASIZE PUSH0 DUP1 RETURNDATACOPY RETURNDATASIZE PUSH0 REVERT JUMPDEST POP POP POP POP PUSH1 0x40 MLOAD RETURNDATASIZE PUSH1 0x1F NOT PUSH1 0x1F DUP3 ADD AND DUP3 ADD DUP1 PUSH1 0x40 MSTORE POP DUP2 ADD SWAP1 PUSH2 0x32F SWAP2 SWAP1 PUSH2 0xBDC JUMP JUMPDEST POP PUSH0 DUP3 PUSH1 0x3 ADD PUSH0 PUSH2 0x100 EXP DUP2 SLOAD DUP2 PUSH1 0xFF MUL NOT AND SWAP1 DUP4 ISZERO ISZERO MUL OR SWAP1 SSTORE POP DUP3 PUSH20 0xFFFFFFFFFFFFFFFFFFFFFFFFFFFFFFFFFFFFFFFF AND CALLER PUSH20 0xFFFFFFFFFFFFFFFFFFFFFFFFFFFFFFFFFFFFFFFF AND PUSH32 0x8960A86F8E26AD8A380BE6100FB39B40C086F647D48DE2419F2279B39FB2D14 DUP5 PUSH1 0x1 ADD DUP6 PUSH1 0x2 ADD SLOAD PUSH1 0x40 MLOAD PUSH2 0x3B1 SWAP3 SWAP2 SWAP1 PUSH2 0xCF7 JUMP JUMPDEST PUSH1 0x40 MLOAD DUP1 SWAP2 SUB SWAP1 LOG3 POP POP POP JUMP JUMPDEST PUSH1 0x1 PUSH1 0x20 MSTORE DUP1 PUSH0 MSTORE PUSH1 0x40 PUSH0 KECCAK256 PUSH0 SWAP2 POP SWAP1 POP DUP1 PUSH0 ADD PUSH0 SWAP1 SLOAD SWAP1 PUSH2 0x100 EXP SWAP1 DIV PUSH20 0xFFFFFFFFFFFFFFFFFFFFFFFFFFFFFFFFFFFFFFFF AND SWAP1 DUP1 PUSH1 0x1 ADD DUP1 SLOAD PUSH2 0x402 SWAP1 PUSH2 0xC34 JUMP JUMPDEST DUP1 PUSH1 0x1F ADD PUSH1 0x20 DUP1 SWAP2 DIV MUL PUSH1 0x20 ADD PUSH1 0x40 MLOAD SWAP1 DUP2 ADD PUSH1 0x40 MSTORE DUP1 SWAP3 SWAP2 SWAP1 DUP2 DUP2 MSTORE PUSH1 0x20 ADD DUP3 DUP1 SLOAD PUSH2 0x42E SWAP1 PUSH2 0xC34 JUMP JUMPDEST DUP1 ISZERO PUSH2 0x479 JUMPI DUP1 PUSH1 0x1F LT PUSH2 0x450 JUMPI PUSH2 0x100 DUP1 DUP4 SLOAD DIV MUL DUP4 MSTORE SWAP2 PUSH1 0x20 ADD SWAP2 PUSH2 0x479 JUMP JUMPDEST DUP3 ADD SWAP2 SWAP1 PUSH0 MSTORE PUSH1 0x20 PUSH0 KECCAK256 SWAP1 JUMPDEST DUP2 SLOAD DUP2 MSTORE SWAP1 PUSH1 0x1 ADD SWAP1 PUSH1 0x20 ADD DUP1 DUP4 GT PUSH2 0x45C JUMPI DUP3 SWAP1 SUB PUSH1 0x1F AND DUP3 ADD SWAP2 JUMPDEST POP POP POP POP POP SWAP1 DUP1 PUSH1 0x2 ADD SLOAD SWAP1 DUP1 PUSH1 0x3 ADD PUSH0 SWAP1 SLOAD SWAP1 PUSH2 0x100 EXP SWAP1 DIV PUSH1 0xFF AND SWAP1 POP DUP5 JUMP JUMPDEST PUSH0 DUP2 GT PUSH2 0x4DD JUMPI PUSH1 0x40 MLOAD PUSH32 0x8C379A000000000000000000000000000000000000000000000000000000000 DUP2 MSTORE PUSH1 0x4 ADD PUSH2 0x4D4 SWAP1 PUSH2 0xD95 JUMP JUMPDEST PUSH1 0x40 MLOAD DUP1 SWAP2 SUB SWAP1 REVERT JUMPDEST PUSH1 0x40 MLOAD DUP1 PUSH1 0x80 ADD PUSH1 0x40 MSTORE DUP1 CALLER PUSH20 0xFFFFFFFFFFFFFFFFFFFFFFFFFFFFFFFFFFFFFFFF AND DUP2 MSTORE PUSH1 0x20 ADD DUP5 DUP5 DUP1 DUP1 PUSH1 0x1F ADD PUSH1 0x20 DUP1 SWAP2 DIV MUL PUSH1 0x20 ADD PUSH1 0x40 MLOAD SWAP1 DUP2 ADD PUSH1 0x40 MSTORE DUP1 SWAP4 SWAP3 SWAP2 SWAP1 DUP2 DUP2 MSTORE PUSH1 0x20 ADD DUP4 DUP4 DUP1 DUP3 DUP5 CALLDATACOPY PUSH0 DUP2 DUP5 ADD MSTORE PUSH1 0x1F NOT PUSH1 0x1F DUP3 ADD AND SWAP1 POP DUP1 DUP4 ADD SWAP3 POP POP POP POP POP POP POP DUP2 MSTORE PUSH1 0x20 ADD DUP3 DUP2 MSTORE PUSH1 0x20 ADD PUSH1 0x1 ISZERO ISZERO DUP2 MSTORE POP PUSH1 0x1 PUSH0 CALLER PUSH20 0xFFFFFFFFFFFFFFFFFFFFFFFFFFFFFFFFFFFFFFFF AND PUSH20 0xFFFFFFFFFFFFFFFFFFFFFFFFFFFFFFFFFFFFFFFF AND DUP2 MSTORE PUSH1 0x20 ADD SWAP1 DUP2 MSTORE PUSH1 0x20 ADD PUSH0 KECCAK256 PUSH0 DUP3 ADD MLOAD DUP2 PUSH0 ADD PUSH0 PUSH2 0x100 EXP DUP2 SLOAD DUP2 PUSH20 0xFFFFFFFFFFFFFFFFFFFFFFFFFFFFFFFFFFFFFFFF MUL NOT AND SWAP1 DUP4 PUSH20 0xFFFFFFFFFFFFFFFFFFFFFFFFFFFFFFFFFFFFFFFF AND MUL OR SWAP1 SSTORE POP PUSH1 0x20 DUP3 ADD MLOAD DUP2 PUSH1 0x1 ADD SWAP1 DUP2 PUSH2 0x5F0 SWAP2 SWAP1 PUSH2 0xF62 JUMP JUMPDEST POP PUSH1 0x40 DUP3 ADD MLOAD DUP2 PUSH1 0x2 ADD SSTORE PUSH1 0x60 DUP3 ADD MLOAD DUP2 PUSH1 0x3 ADD PUSH0 PUSH2 0x100 EXP DUP2 SLOAD DUP2 PUSH1 0xFF MUL NOT AND SWAP1 DUP4 ISZERO ISZERO MUL OR SWAP1 SSTORE POP SWAP1 POP POP CALLER PUSH20 0xFFFFFFFFFFFFFFFFFFFFFFFFFFFFFFFFFFFFFFFF AND PUSH32 0x2EEFC679EC465266993F0E88735D34245F8690611BB53AB1EE9933BB355DF40E DUP5 DUP5 DUP5 PUSH1 0x40 MLOAD PUSH2 0x667 SWAP4 SWAP3 SWAP2 SWAP1 PUSH2 0x106B JUMP JUMPDEST PUSH1 0x40 MLOAD DUP1 SWAP2 SUB SWAP1 LOG2 POP POP POP JUMP JUMPDEST PUSH0 DUP1 SLOAD SWAP1 PUSH2 0x100 EXP SWAP1 DIV PUSH20 0xFFFFFFFFFFFFFFFFFFFFFFFFFFFFFFFFFFFFFFFF AND DUP2 JUMP JUMPDEST PUSH0 DUP1 REVERT JUMPDEST PUSH0 DUP1 REVERT JUMPDEST PUSH0 PUSH20 0xFFFFFFFFFFFFFFFFFFFFFFFFFFFFFFFFFFFFFFFF DUP3 AND SWAP1 POP SWAP2 SWAP1 POP JUMP JUMPDEST PUSH0 PUSH2 0x6C8 DUP3 PUSH2 0x69F JUMP JUMPDEST SWAP1 POP SWAP2 SWAP1 POP JUMP JUMPDEST PUSH2 0x6D8 DUP2 PUSH2 0x6BE JUMP JUMPDEST DUP2 EQ PUSH2 0x6E2 JUMPI PUSH0 DUP1 REVERT JUMPDEST POP JUMP JUMPDEST PUSH0 DUP2 CALLDATALOAD SWAP1 POP PUSH2 0x6F3 DUP2 PUSH2 0x6CF JUMP JUMPDEST SWAP3 SWAP2 POP POP JUMP JUMPDEST PUSH0 PUSH1 0x20 DUP3 DUP5 SUB SLT ISZERO PUSH2 0x70E JUMPI PUSH2 0x70D PUSH2 0x697 JUMP JUMPDEST JUMPDEST PUSH0 PUSH2 0x71B DUP5 DUP3 DUP6 ADD PUSH2 0x6E5 JUMP JUMPDEST SWAP2 POP POP SWAP3 SWAP2 POP POP JUMP JUMPDEST PUSH2 0x72D DUP2 PUSH2 0x6BE JUMP JUMPDEST DUP3 MSTORE POP POP JUMP JUMPDEST PUSH0 DUP2 MLOAD SWAP1 POP SWAP2 SWAP1 POP JUMP JUMPDEST PUSH0 DUP3 DUP3 MSTORE PUSH1 0x20 DUP3 ADD SWAP1 POP SWAP3 SWAP2 POP POP JUMP JUMPDEST DUP3 DUP2 DUP4 MCOPY PUSH0 DUP4 DUP4 ADD MSTORE POP POP POP JUMP JUMPDEST PUSH0 PUSH1 0x1F NOT PUSH1 0x1F DUP4 ADD AND SWAP1 POP SWAP2 SWAP1 POP JUMP JUMPDEST PUSH0 PUSH2 0x775 DUP3 PUSH2 0x733 JUMP JUMPDEST PUSH2 0x77F DUP2 DUP6 PUSH2 0x73D JUMP JUMPDEST SWAP4 POP PUSH2 0x78F DUP2 DUP6 PUSH1 0x20 DUP7 ADD PUSH2 0x74D JUMP JUMPDEST PUSH2 0x798 DUP2 PUSH2 0x75B JUMP JUMPDEST DUP5 ADD SWAP2 POP POP SWAP3 SWAP2 POP POP JUMP JUMPDEST PUSH0 DUP2 SWAP1 POP SWAP2 SWAP1 POP JUMP JUMPDEST PUSH2 0x7B5 DUP2 PUSH2 0x7A3 JUMP JUMPDEST DUP3 MSTORE POP POP JUMP JUMPDEST PUSH0 DUP2 ISZERO ISZERO SWAP1 POP SWAP2 SWAP1 POP JUMP JUMPDEST PUSH2 0x7CF DUP2 PUSH2 0x7BB JUMP JUMPDEST DUP3 MSTORE POP POP JUMP JUMPDEST PUSH0 PUSH1 0x80 DUP3 ADD SWAP1 POP PUSH2 0x7E8 PUSH0 DUP4 ADD DUP8 PUSH2 0x724 JUMP JUMPDEST DUP2 DUP2 SUB PUSH1 0x20 DUP4 ADD MSTORE PUSH2 0x7FA DUP2 DUP7 PUSH2 0x76B JUMP JUMPDEST SWAP1 POP PUSH2 0x809 PUSH1 0x40 DUP4 ADD DUP6 PUSH2 0x7AC JUMP JUMPDEST PUSH2 0x816 PUSH1 0x60 DUP4 ADD DUP5 PUSH2 0x7C6 JUMP JUMPDEST SWAP6 SWAP5 POP POP POP POP POP JUMP JUMPDEST PUSH0 DUP1 REVERT JUMPDEST PUSH0 DUP1 REVERT JUMPDEST PUSH0 DUP1 REVERT JUMPDEST PUSH0 DUP1 DUP4 PUSH1 0x1F DUP5 ADD SLT PUSH2 0x840 JUMPI PUSH2 0x83F PUSH2 0x81F JUMP JUMPDEST JUMPDEST DUP3 CALLDATALOAD SWAP1 POP PUSH8 0xFFFFFFFFFFFFFFFF DUP2 GT ISZERO PUSH2 0x85D JUMPI PUSH2 0x85C PUSH2 0x823 JUMP JUMPDEST JUMPDEST PUSH1 0x20 DUP4 ADD SWAP2 POP DUP4 PUSH1 0x1 DUP3 MUL DUP4 ADD GT ISZERO PUSH2 0x879 JUMPI PUSH2 0x878 PUSH2 0x827 JUMP JUMPDEST JUMPDEST SWAP3 POP SWAP3 SWAP1 POP JUMP JUMPDEST PUSH2 0x889 DUP2 PUSH2 0x7A3 JUMP JUMPDEST DUP2 EQ PUSH2 0x893 JUMPI PUSH0 DUP1 REVERT JUMPDEST POP JUMP JUMPDEST PUSH0 DUP2 CALLDATALOAD SWAP1 POP PUSH2 0x8A4 DUP2 PUSH2 0x880 JUMP JUMPDEST SWAP3 SWAP2 POP POP JUMP JUMPDEST PUSH0 DUP1 PUSH0 PUSH1 0x40 DUP5 DUP7 SUB SLT ISZERO PUSH2 0x8C1 JUMPI PUSH2 0x8C0 PUSH2 0x697 JUMP JUMPDEST JUMPDEST PUSH0 DUP5 ADD CALLDATALOAD PUSH8 0xFFFFFFFFFFFFFFFF DUP2 GT ISZERO PUSH2 0x8DE JUMPI PUSH2 0x8DD PUSH2 0x69B JUMP JUMPDEST JUMPDEST PUSH2 0x8EA DUP7 DUP3 DUP8 ADD PUSH2 0x82B JUMP JUMPDEST SWAP4 POP SWAP4 POP POP PUSH1 0x20 PUSH2 0x8FD DUP7 DUP3 DUP8 ADD PUSH2 0x896 JUMP JUMPDEST SWAP2 POP POP SWAP3 POP SWAP3 POP SWAP3 JUMP JUMPDEST PUSH0 DUP2 SWAP1 POP SWAP2 SWAP1 POP JUMP JUMPDEST PUSH0 PUSH2 0x92A PUSH2 0x925 PUSH2 0x920 DUP5 PUSH2 0x69F JUMP JUMPDEST PUSH2 0x907 JUMP JUMPDEST PUSH2 0x69F JUMP JUMPDEST SWAP1 POP SWAP2 SWAP1 POP JUMP JUMPDEST PUSH0 PUSH2 0x93B DUP3 PUSH2 0x910 JUMP JUMPDEST SWAP1 POP SWAP2 SWAP1 POP JUMP JUMPDEST PUSH0 PUSH2 0x94C DUP3 PUSH2 0x931 JUMP JUMPDEST SWAP1 POP SWAP2 SWAP1 POP JUMP JUMPDEST PUSH2 0x95C DUP2 PUSH2 0x942 JUMP JUMPDEST DUP3 MSTORE POP POP JUMP JUMPDEST PUSH0 PUSH1 0x20 DUP3 ADD SWAP1 POP PUSH2 0x975 PUSH0 DUP4 ADD DUP5 PUSH2 0x953 JUMP JUMPDEST SWAP3 SWAP2 POP POP JUMP JUMPDEST PUSH32 0x54686973207475746F72206973206E6F206C6F6E67657220617661696C61626C PUSH0 DUP3 ADD MSTORE PUSH32 0x6500000000000000000000000000000000000000000000000000000000000000 PUSH1 0x20 DUP3 ADD MSTORE POP JUMP JUMPDEST PUSH0 PUSH2 0x9D5 PUSH1 0x21 DUP4 PUSH2 0x73D JUMP JUMPDEST SWAP2 POP PUSH2 0x9E0 DUP3 PUSH2 0x97B JUMP JUMPDEST PUSH1 0x40 DUP3 ADD SWAP1 POP SWAP2 SWAP1 POP JUMP JUMPDEST PUSH0 PUSH1 0x20 DUP3 ADD SWAP1 POP DUP2 DUP2 SUB PUSH0 DUP4 ADD MSTORE PUSH2 0xA02 DUP2 PUSH2 0x9C9 JUMP JUMPDEST SWAP1 POP SWAP2 SWAP1 POP JUMP JUMPDEST PUSH32 0x54686973207475746F7220686173206E6F742073657420612076616C69642074 PUSH0 DUP3 ADD MSTORE PUSH32 0x6F6B656E20707269636500000000000000000000000000000000000000000000 PUSH1 0x20 DUP3 ADD MSTORE POP JUMP JUMPDEST PUSH0 PUSH2 0xA63 PUSH1 0x2A DUP4 PUSH2 0x73D JUMP JUMPDEST SWAP2 POP PUSH2 0xA6E DUP3 PUSH2 0xA09 JUMP JUMPDEST PUSH1 0x40 DUP3 ADD SWAP1 POP SWAP2 SWAP1 POP JUMP JUMPDEST PUSH0 PUSH1 0x20 DUP3 ADD SWAP1 POP DUP2 DUP2 SUB PUSH0 DUP4 ADD MSTORE PUSH2 0xA90 DUP2 PUSH2 0xA57 JUMP JUMPDEST SWAP1 POP SWAP2 SWAP1 POP JUMP JUMPDEST PUSH0 PUSH1 0x20 DUP3 ADD SWAP1 POP PUSH2 0xAAA PUSH0 DUP4 ADD DUP5 PUSH2 0x724 JUMP JUMPDEST SWAP3 SWAP2 POP POP JUMP JUMPDEST PUSH0 DUP2 MLOAD SWAP1 POP PUSH2 0xABE DUP2 PUSH2 0x880 JUMP JUMPDEST SWAP3 SWAP2 POP POP JUMP JUMPDEST PUSH0 PUSH1 0x20 DUP3 DUP5 SUB SLT ISZERO PUSH2 0xAD9 JUMPI PUSH2 0xAD8 PUSH2 0x697 JUMP JUMPDEST JUMPDEST PUSH0 PUSH2 0xAE6 DUP5 DUP3 DUP6 ADD PUSH2 0xAB0 JUMP JUMPDEST SWAP2 POP POP SWAP3 SWAP2 POP POP JUMP JUMPDEST PUSH32 0x496E73756666696369656E7420746F6B656E7320746F20626F6F6B207475746F PUSH0 DUP3 ADD MSTORE PUSH32 0x72696E672073657373696F6E0000000000000000000000000000000000000000 PUSH1 0x20 DUP3 ADD MSTORE POP JUMP JUMPDEST PUSH0 PUSH2 0xB49 PUSH1 0x2C DUP4 PUSH2 0x73D JUMP JUMPDEST SWAP2 POP PUSH2 0xB54 DUP3 PUSH2 0xAEF JUMP JUMPDEST PUSH1 0x40 DUP3 ADD SWAP1 POP SWAP2 SWAP1 POP JUMP JUMPDEST PUSH0 PUSH1 0x20 DUP3 ADD SWAP1 POP DUP2 DUP2 SUB PUSH0 DUP4 ADD MSTORE PUSH2 0xB76 DUP2 PUSH2 0xB3D JUMP JUMPDEST SWAP1 POP SWAP2 SWAP1 POP JUMP JUMPDEST PUSH0 PUSH1 0x60 DUP3 ADD SWAP1 POP PUSH2 0xB90 PUSH0 DUP4 ADD DUP7 PUSH2 0x724 JUMP JUMPDEST PUSH2 0xB9D PUSH1 0x20 DUP4 ADD DUP6 PUSH2 0x724 JUMP JUMPDEST PUSH2 0xBAA PUSH1 0x40 DUP4 ADD DUP5 PUSH2 0x7AC JUMP JUMPDEST SWAP5 SWAP4 POP POP POP POP JUMP JUMPDEST PUSH2 0xBBB DUP2 PUSH2 0x7BB JUMP JUMPDEST DUP2 EQ PUSH2 0xBC5 JUMPI PUSH0 DUP1 REVERT JUMPDEST POP JUMP JUMPDEST PUSH0 DUP2 MLOAD SWAP1 POP PUSH2 0xBD6 DUP2 PUSH2 0xBB2 JUMP JUMPDEST SWAP3 SWAP2 POP POP JUMP JUMPDEST PUSH0 PUSH1 0x20 DUP3 DUP5 SUB SLT ISZERO PUSH2 0xBF1 JUMPI PUSH2 0xBF0 PUSH2 0x697 JUMP JUMPDEST JUMPDEST PUSH0 PUSH2 0xBFE DUP5 DUP3 DUP6 ADD PUSH2 0xBC8 JUMP JUMPDEST SWAP2 POP POP SWAP3 SWAP2 POP POP JUMP JUMPDEST PUSH32 0x4E487B7100000000000000000000000000000000000000000000000000000000 PUSH0 MSTORE PUSH1 0x22 PUSH1 0x4 MSTORE PUSH1 0x24 PUSH0 REVERT JUMPDEST PUSH0 PUSH1 0x2 DUP3 DIV SWAP1 POP PUSH1 0x1 DUP3 AND DUP1 PUSH2 0xC4B JUMPI PUSH1 0x7F DUP3 AND SWAP2 POP JUMPDEST PUSH1 0x20 DUP3 LT DUP2 SUB PUSH2 0xC5E JUMPI PUSH2 0xC5D PUSH2 0xC07 JUMP JUMPDEST JUMPDEST POP SWAP2 SWAP1 POP JUMP JUMPDEST PUSH0 DUP2 SWAP1 POP DUP2 PUSH0 MSTORE PUSH1 0x20 PUSH0 KECCAK256 SWAP1 POP SWAP2 SWAP1 POP JUMP JUMPDEST PUSH0 DUP2 SLOAD PUSH2 0xC82 DUP2 PUSH2 0xC34 JUMP JUMPDEST PUSH2 0xC8C DUP2 DUP7 PUSH2 0x73D JUMP JUMPDEST SWAP5 POP PUSH1 0x1 DUP3 AND PUSH0 DUP2 EQ PUSH2 0xCA6 JUMPI PUSH1 0x1 DUP2 EQ PUSH2 0xCBC JUMPI PUSH2 0xCEE JUMP JUMPDEST PUSH1 0xFF NOT DUP4 AND DUP7 MSTORE DUP2 ISZERO ISZERO PUSH1 0x20 MUL DUP7 ADD SWAP4 POP PUSH2 0xCEE JUMP JUMPDEST PUSH2 0xCC5 DUP6 PUSH2 0xC64 JUMP JUMPDEST PUSH0 JUMPDEST DUP4 DUP2 LT ISZERO PUSH2 0xCE6 JUMPI DUP2 SLOAD DUP2 DUP10 ADD MSTORE PUSH1 0x1 DUP3 ADD SWAP2 POP PUSH1 0x20 DUP2 ADD SWAP1 POP PUSH2 0xCC7 JUMP JUMPDEST DUP1 DUP9 ADD SWAP6 POP POP POP JUMPDEST POP POP POP SWAP3 SWAP2 POP POP JUMP JUMPDEST PUSH0 PUSH1 0x40 DUP3 ADD SWAP1 POP DUP2 DUP2 SUB PUSH0 DUP4 ADD MSTORE PUSH2 0xD0F DUP2 DUP6 PUSH2 0xC76 JUMP JUMPDEST SWAP1 POP PUSH2 0xD1E PUSH1 0x20 DUP4 ADD DUP5 PUSH2 0x7AC JUMP JUMPDEST SWAP4 SWAP3 POP POP POP JUMP JUMPDEST PUSH32 0x546F6B656E73207265717569726564206D757374206265206772656174657220 PUSH0 DUP3 ADD MSTORE PUSH32 0x7468616E20300000000000000000000000000000000000000000000000000000 PUSH1 0x20 DUP3 ADD MSTORE POP JUMP JUMPDEST PUSH0 PUSH2 0xD7F PUSH1 0x26 DUP4 PUSH2 0x73D JUMP JUMPDEST SWAP2 POP PUSH2 0xD8A DUP3 PUSH2 0xD25 JUMP JUMPDEST PUSH1 0x40 DUP3 ADD SWAP1 POP SWAP2 SWAP1 POP JUMP JUMPDEST PUSH0 PUSH1 0x20 DUP3 ADD SWAP1 POP DUP2 DUP2 SUB PUSH0 DUP4 ADD MSTORE PUSH2 0xDAC DUP2 PUSH2 0xD73 JUMP JUMPDEST SWAP1 POP SWAP2 SWAP1 POP JUMP JUMPDEST PUSH32 0x4E487B7100000000000000000000000000000000000000000000000000000000 PUSH0 MSTORE PUSH1 0x41 PUSH1 0x4 MSTORE PUSH1 0x24 PUSH0 REVERT JUMPDEST PUSH0 PUSH1 0x20 PUSH1 0x1F DUP4 ADD DIV SWAP1 POP SWAP2 SWAP1 POP JUMP JUMPDEST PUSH0 DUP3 DUP3 SHL SWAP1 POP SWAP3 SWAP2 POP POP JUMP JUMPDEST PUSH0 PUSH1 0x8 DUP4 MUL PUSH2 0xE2A PUSH32 0xFFFFFFFFFFFFFFFFFFFFFFFFFFFFFFFFFFFFFFFFFFFFFFFFFFFFFFFFFFFFFFFF DUP3 PUSH2 0xDEF JUMP JUMPDEST PUSH2 0xE34 DUP7 DUP4 PUSH2 0xDEF JUMP JUMPDEST SWAP6 POP DUP1 NOT DUP5 AND SWAP4 POP DUP1 DUP7 AND DUP5 OR SWAP3 POP POP POP SWAP4 SWAP3 POP POP POP JUMP JUMPDEST PUSH0 PUSH2 0xE66 PUSH2 0xE61 PUSH2 0xE5C DUP5 PUSH2 0x7A3 JUMP JUMPDEST PUSH2 0x907 JUMP JUMPDEST PUSH2 0x7A3 JUMP JUMPDEST SWAP1 POP SWAP2 SWAP1 POP JUMP JUMPDEST PUSH0 DUP2 SWAP1 POP SWAP2 SWAP1 POP JUMP JUMPDEST PUSH2 0xE7F DUP4 PUSH2 0xE4C JUMP JUMPDEST PUSH2 0xE93 PUSH2 0xE8B DUP3 PUSH2 0xE6D JUMP JUMPDEST DUP5 DUP5 SLOAD PUSH2 0xDFB JUMP JUMPDEST DUP3 SSTORE POP POP POP POP JUMP JUMPDEST PUSH0 SWAP1 JUMP JUMPDEST PUSH2 0xEA7 PUSH2 0xE9B JUMP JUMPDEST PUSH2 0xEB2 DUP2 DUP5 DUP5 PUSH2 0xE76 JUMP JUMPDEST POP POP POP JUMP JUMPDEST JUMPDEST DUP2 DUP2 LT ISZERO PUSH2 0xED5 JUMPI PUSH2 0xECA PUSH0 DUP3 PUSH2 0xE9F JUMP JUMPDEST PUSH1 0x1 DUP2 ADD SWAP1 POP PUSH2 0xEB8 JUMP JUMPDEST POP POP JUMP JUMPDEST PUSH1 0x1F DUP3 GT ISZERO PUSH2 0xF1A JUMPI PUSH2 0xEEB DUP2 PUSH2 0xC64 JUMP JUMPDEST PUSH2 0xEF4 DUP5 PUSH2 0xDE0 JUMP JUMPDEST DUP2 ADD PUSH1 0x20 DUP6 LT ISZERO PUSH2 0xF03 JUMPI DUP2 SWAP1 POP JUMPDEST PUSH2 0xF17 PUSH2 0xF0F DUP6 PUSH2 0xDE0 JUMP JUMPDEST DUP4 ADD DUP3 PUSH2 0xEB7 JUMP JUMPDEST POP POP JUMPDEST POP POP POP JUMP JUMPDEST PUSH0 DUP3 DUP3 SHR SWAP1 POP SWAP3 SWAP2 POP POP JUMP JUMPDEST PUSH0 PUSH2 0xF3A PUSH0 NOT DUP5 PUSH1 0x8 MUL PUSH2 0xF1F JUMP JUMPDEST NOT DUP1 DUP4 AND SWAP2 POP POP SWAP3 SWAP2 POP POP JUMP JUMPDEST PUSH0 PUSH2 0xF52 DUP4 DUP4 PUSH2 0xF2B JUMP JUMPDEST SWAP2 POP DUP3 PUSH1 0x2 MUL DUP3 OR SWAP1 POP SWAP3 SWAP2 POP POP JUMP JUMPDEST PUSH2 0xF6B DUP3 PUSH2 0x733 JUMP JUMPDEST PUSH8 0xFFFFFFFFFFFFFFFF DUP2 GT ISZERO PUSH2 0xF84 JUMPI PUSH2 0xF83 PUSH2 0xDB3 JUMP JUMPDEST JUMPDEST PUSH2 0xF8E DUP3 SLOAD PUSH2 0xC34 JUMP JUMPDEST PUSH2 0xF99 DUP3 DUP3 DUP6 PUSH2 0xED9 JUMP JUMPDEST PUSH0 PUSH1 0x20 SWAP1 POP PUSH1 0x1F DUP4 GT PUSH1 0x1 DUP2 EQ PUSH2 0xFCA JUMPI PUSH0 DUP5 ISZERO PUSH2 0xFB8 JUMPI DUP3 DUP8 ADD MLOAD SWAP1 POP JUMPDEST PUSH2 0xFC2 DUP6 DUP3 PUSH2 0xF47 JUMP JUMPDEST DUP7 SSTORE POP PUSH2 0x1029 JUMP JUMPDEST PUSH1 0x1F NOT DUP5 AND PUSH2 0xFD8 DUP7 PUSH2 0xC64 JUMP JUMPDEST PUSH0 JUMPDEST DUP3 DUP2 LT ISZERO PUSH2 0xFFF JUMPI DUP5 DUP10 ADD MLOAD DUP3 SSTORE PUSH1 0x1 DUP3 ADD SWAP2 POP PUSH1 0x20 DUP6 ADD SWAP5 POP PUSH1 0x20 DUP2 ADD SWAP1 POP PUSH2 0xFDA JUMP JUMPDEST DUP7 DUP4 LT ISZERO PUSH2 0x101C JUMPI DUP5 DUP10 ADD MLOAD PUSH2 0x1018 PUSH1 0x1F DUP10 AND DUP3 PUSH2 0xF2B JUMP JUMPDEST DUP4 SSTORE POP JUMPDEST PUSH1 0x1 PUSH1 0x2 DUP9 MUL ADD DUP9 SSTORE POP POP POP JUMPDEST POP POP POP POP POP POP JUMP JUMPDEST DUP3 DUP2 DUP4 CALLDATACOPY PUSH0 DUP4 DUP4 ADD MSTORE POP POP POP JUMP JUMPDEST PUSH0 PUSH2 0x104A DUP4 DUP6 PUSH2 0x73D JUMP JUMPDEST SWAP4 POP PUSH2 0x1057 DUP4 DUP6 DUP5 PUSH2 0x1031 JUMP JUMPDEST PUSH2 0x1060 DUP4 PUSH2 0x75B JUMP JUMPDEST DUP5 ADD SWAP1 POP SWAP4 SWAP3 POP POP POP JUMP JUMPDEST PUSH0 PUSH1 0x40 DUP3 ADD SWAP1 POP DUP2 DUP2 SUB PUSH0 DUP4 ADD MSTORE PUSH2 0x1084 DUP2 DUP6 DUP8 PUSH2 0x103F JUMP JUMPDEST SWAP1 POP PUSH2 0x1093 PUSH1 0x20 DUP4 ADD DUP5 PUSH2 0x7AC JUMP JUMPDEST SWAP5 SWAP4 POP POP POP POP JUMP INVALID LOG2 PUSH5 0x6970667358 0x22 SLT KECCAK256 CALLCODE TIMESTAMP 0xAF 0x26 ADD 0xD5 PUSH13 0xE34D5504DD5CB60309099AC516 SWAP13 0xAD 0x4D DUP11 0x24 DUP15 KECCAK256 SHL 0x23 0xD6 PUSH23 0xB64736F6C634300081A00330000000000000000000000 "
				},
				"gasEstimates": {
					"creation": {
						"codeDepositCost": "861000",
						"executionCost": "infinite",
						"totalCost": "infinite"
					},
					"external": {
						"bookTutoringSession(address)": "infinite",
						"offerTutoring(string,uint256)": "infinite",
						"token()": "infinite",
						"tutoringOffers(address)": "infinite"
					}
				},
				"methodIdentifiers": {
					"bookTutoringSession(address)": "04bf5782",
					"offerTutoring(string,uint256)": "6bb62bff",
					"token()": "fc0c546a",
					"tutoringOffers(address)": "612c1c45"
				}
			},
			"storageLayout": {
				"storage": [
					{
						"astId": 23,
						"contract": "project-32/contracts/contract.sol:PeerToPeerTutoring",
						"label": "token",
						"offset": 0,
						"slot": "0",
						"type": "t_contract(IToken)20"
					},
					{
						"astId": 37,
						"contract": "project-32/contracts/contract.sol:PeerToPeerTutoring",
						"label": "tutoringOffers",
						"offset": 0,
						"slot": "1",
						"type": "t_mapping(t_address,t_struct(TutoringOffer)32_storage)"
					}
				],
				"types": {
					"t_address": {
						"encoding": "inplace",
						"label": "address",
						"numberOfBytes": "20"
					},
					"t_bool": {
						"encoding": "inplace",
						"label": "bool",
						"numberOfBytes": "1"
					},
					"t_contract(IToken)20": {
						"encoding": "inplace",
						"label": "contract IToken",
						"numberOfBytes": "20"
					},
					"t_mapping(t_address,t_struct(TutoringOffer)32_storage)": {
						"encoding": "mapping",
						"key": "t_address",
						"label": "mapping(address => struct PeerToPeerTutoring.TutoringOffer)",
						"numberOfBytes": "32",
						"value": "t_struct(TutoringOffer)32_storage"
					},
					"t_string_storage": {
						"encoding": "bytes",
						"label": "string",
						"numberOfBytes": "32"
					},
					"t_struct(TutoringOffer)32_storage": {
						"encoding": "inplace",
						"label": "struct PeerToPeerTutoring.TutoringOffer",
						"members": [
							{
								"astId": 25,
								"contract": "project-32/contracts/contract.sol:PeerToPeerTutoring",
								"label": "tutor",
								"offset": 0,
								"slot": "0",
								"type": "t_address"
							},
							{
								"astId": 27,
								"contract": "project-32/contracts/contract.sol:PeerToPeerTutoring",
								"label": "topic",
								"offset": 0,
								"slot": "1",
								"type": "t_string_storage"
							},
							{
								"astId": 29,
								"contract": "project-32/contracts/contract.sol:PeerToPeerTutoring",
								"label": "tokensRequired",
								"offset": 0,
								"slot": "2",
								"type": "t_uint256"
							},
							{
								"astId": 31,
								"contract": "project-32/contracts/contract.sol:PeerToPeerTutoring",
								"label": "isAvailable",
								"offset": 0,
								"slot": "3",
								"type": "t_bool"
							}
						],
						"numberOfBytes": "128"
					},
					"t_uint256": {
						"encoding": "inplace",
						"label": "uint256",
						"numberOfBytes": "32"
					}
				}
			},
			"userdoc": {
				"kind": "user",
				"methods": {},
				"version": 1
			}
		}
	}
}